{
  "contractName": "voting",
  "abi": [
    {
      "anonymous": false,
      "inputs": [
        {
          "indexed": false,
          "internalType": "string",
          "name": "message",
          "type": "string"
        }
      ],
      "name": "Debug",
      "type": "event"
    },
    {
      "anonymous": false,
      "inputs": [
        {
          "indexed": false,
          "internalType": "uint256",
          "name": "userId",
          "type": "uint256"
        },
        {
          "indexed": false,
          "internalType": "string",
          "name": "username",
          "type": "string"
        },
        {
          "indexed": false,
          "internalType": "string",
          "name": "email",
          "type": "string"
        }
      ],
      "name": "UserCreated",
      "type": "event"
    },
    {
      "anonymous": false,
      "inputs": [
        {
          "indexed": false,
          "internalType": "string",
          "name": "username",
          "type": "string"
        }
      ],
      "name": "UserLoggedIn",
      "type": "event"
    },
    {
      "anonymous": false,
      "inputs": [
        {
          "indexed": false,
          "internalType": "string",
          "name": "county",
          "type": "string"
        },
        {
          "indexed": false,
          "internalType": "uint256",
          "name": "candidateIndex",
          "type": "uint256"
        }
      ],
      "name": "VoteForGovernor",
      "type": "event"
    },
    {
      "anonymous": false,
      "inputs": [
        {
          "indexed": false,
          "internalType": "string",
          "name": "county",
          "type": "string"
        },
        {
          "indexed": false,
          "internalType": "string",
          "name": "constituency",
          "type": "string"
        },
        {
          "indexed": false,
          "internalType": "uint256",
          "name": "candidateIndex",
          "type": "uint256"
        }
      ],
      "name": "VoteForParliament",
      "type": "event"
    },
    {
      "anonymous": false,
      "inputs": [
        {
          "indexed": false,
          "internalType": "uint256",
          "name": "candidateIndex",
          "type": "uint256"
        }
      ],
      "name": "VoteForPresident",
      "type": "event"
    },
    {
      "inputs": [
        {
          "internalType": "address",
          "name": "",
          "type": "address"
        }
      ],
      "name": "addressToUserId",
      "outputs": [
        {
          "internalType": "uint256",
          "name": "",
          "type": "uint256"
        }
      ],
      "stateMutability": "view",
      "type": "function",
      "constant": true
    },
    {
      "inputs": [
        {
          "internalType": "string",
          "name": "",
          "type": "string"
        },
        {
          "internalType": "uint256",
          "name": "",
          "type": "uint256"
        }
      ],
      "name": "governorCandidates",
      "outputs": [
        {
          "internalType": "string",
          "name": "name",
          "type": "string"
        },
        {
          "internalType": "uint256",
          "name": "votes",
          "type": "uint256"
        }
      ],
      "stateMutability": "view",
      "type": "function",
      "constant": true
    },
    {
      "inputs": [],
      "name": "nextUserId",
      "outputs": [
        {
          "internalType": "uint256",
          "name": "",
          "type": "uint256"
        }
      ],
      "stateMutability": "view",
      "type": "function",
      "constant": true
    },
    {
      "inputs": [
        {
          "internalType": "string",
          "name": "",
          "type": "string"
        },
        {
          "internalType": "string",
          "name": "",
          "type": "string"
        },
        {
          "internalType": "uint256",
          "name": "",
          "type": "uint256"
        }
      ],
      "name": "parliamentCandidates",
      "outputs": [
        {
          "internalType": "string",
          "name": "name",
          "type": "string"
        },
        {
          "internalType": "uint256",
          "name": "votes",
          "type": "uint256"
        }
      ],
      "stateMutability": "view",
      "type": "function",
      "constant": true
    },
    {
      "inputs": [
        {
          "internalType": "uint256",
          "name": "",
          "type": "uint256"
        }
      ],
      "name": "presidentialCandidates",
      "outputs": [
        {
          "internalType": "string",
          "name": "name",
          "type": "string"
        },
        {
          "internalType": "uint256",
          "name": "votes",
          "type": "uint256"
        }
      ],
      "stateMutability": "view",
      "type": "function",
      "constant": true
    },
    {
      "inputs": [],
      "name": "userCount",
      "outputs": [
        {
          "internalType": "uint256",
          "name": "",
          "type": "uint256"
        }
      ],
      "stateMutability": "view",
      "type": "function",
      "constant": true
    },
    {
      "inputs": [
        {
          "internalType": "uint256",
          "name": "",
          "type": "uint256"
        }
      ],
      "name": "userIds",
      "outputs": [
        {
          "internalType": "uint256",
          "name": "",
          "type": "uint256"
        }
      ],
      "stateMutability": "view",
      "type": "function",
      "constant": true
    },
    {
      "inputs": [
        {
          "internalType": "uint256",
          "name": "",
          "type": "uint256"
        }
      ],
      "name": "users",
      "outputs": [
        {
          "internalType": "uint256",
          "name": "userId",
          "type": "uint256"
        },
        {
          "internalType": "address",
          "name": "userAddress",
          "type": "address"
        },
        {
          "internalType": "string",
          "name": "username",
          "type": "string"
        },
        {
          "internalType": "string",
          "name": "email",
          "type": "string"
        },
        {
          "internalType": "string",
          "name": "county",
          "type": "string"
        },
        {
          "internalType": "string",
          "name": "constituency",
          "type": "string"
        },
        {
          "internalType": "bool",
          "name": "isRegistered",
          "type": "bool"
        },
        {
          "internalType": "bool",
          "name": "hasVotedPresidential",
          "type": "bool"
        },
        {
          "internalType": "bytes32",
          "name": "passwordHash",
          "type": "bytes32"
        },
        {
          "internalType": "bool",
          "name": "isAdmin",
          "type": "bool"
        }
      ],
      "stateMutability": "view",
      "type": "function",
      "constant": true
    },
    {
      "inputs": [
        {
          "internalType": "string",
          "name": "_username",
          "type": "string"
        },
        {
          "internalType": "string",
          "name": "_email",
          "type": "string"
        },
        {
          "internalType": "string",
          "name": "_password",
          "type": "string"
        },
        {
          "internalType": "string",
          "name": "_county",
          "type": "string"
        },
        {
          "internalType": "string",
          "name": "_constituency",
          "type": "string"
        }
      ],
      "name": "createUser",
      "outputs": [],
      "stateMutability": "nonpayable",
      "type": "function"
    },
    {
      "inputs": [
        {
          "internalType": "uint256",
          "name": "userId",
          "type": "uint256"
        }
      ],
      "name": "getUserById",
      "outputs": [
        {
          "internalType": "uint256",
          "name": "",
          "type": "uint256"
        },
        {
          "internalType": "address",
          "name": "",
          "type": "address"
        },
        {
          "internalType": "string",
          "name": "",
          "type": "string"
        },
        {
          "internalType": "string",
          "name": "",
          "type": "string"
        },
        {
          "internalType": "string",
          "name": "",
          "type": "string"
        },
        {
          "internalType": "string",
          "name": "",
          "type": "string"
        },
        {
          "internalType": "bool",
          "name": "",
          "type": "bool"
        },
        {
          "internalType": "bool",
          "name": "",
          "type": "bool"
        },
        {
          "internalType": "bytes32",
          "name": "",
          "type": "bytes32"
        },
        {
          "internalType": "bool",
          "name": "",
          "type": "bool"
        }
      ],
      "stateMutability": "view",
      "type": "function",
      "constant": true
    },
    {
      "inputs": [
        {
          "internalType": "string",
          "name": "_username",
          "type": "string"
        },
        {
          "internalType": "string",
          "name": "_password",
          "type": "string"
        }
      ],
      "name": "loginUser",
      "outputs": [
        {
          "internalType": "bool",
          "name": "",
          "type": "bool"
        }
      ],
      "stateMutability": "view",
      "type": "function",
      "constant": true
    },
    {
      "inputs": [
        {
          "internalType": "uint256",
          "name": "userId",
          "type": "uint256"
        },
        {
          "internalType": "bool",
          "name": "_isAdmin",
          "type": "bool"
        }
      ],
      "name": "setAdmin",
      "outputs": [],
      "stateMutability": "nonpayable",
      "type": "function"
    },
    {
      "inputs": [
        {
          "internalType": "string",
          "name": "name",
          "type": "string"
        }
      ],
      "name": "addPresidentialCandidate",
      "outputs": [],
      "stateMutability": "nonpayable",
      "type": "function"
    },
    {
      "inputs": [
        {
          "internalType": "string",
          "name": "county",
          "type": "string"
        },
        {
          "internalType": "string",
          "name": "name",
          "type": "string"
        }
      ],
      "name": "addGovernorCandidate",
      "outputs": [],
      "stateMutability": "nonpayable",
      "type": "function"
    },
    {
      "inputs": [
        {
          "internalType": "string",
          "name": "county",
          "type": "string"
        },
        {
          "internalType": "string",
          "name": "constituency",
          "type": "string"
        },
        {
          "internalType": "string",
          "name": "name",
          "type": "string"
        }
      ],
      "name": "addParliamentCandidate",
      "outputs": [],
      "stateMutability": "nonpayable",
      "type": "function"
    },
    {
      "inputs": [],
      "name": "getPresidentialCandidates",
      "outputs": [
        {
          "components": [
            {
              "internalType": "string",
              "name": "name",
              "type": "string"
            },
            {
              "internalType": "uint256",
              "name": "votes",
              "type": "uint256"
            }
          ],
          "internalType": "struct voting.Candidate[]",
          "name": "",
          "type": "tuple[]"
        }
      ],
      "stateMutability": "view",
      "type": "function",
      "constant": true
    },
    {
      "inputs": [
        {
          "internalType": "uint256",
          "name": "userId",
          "type": "uint256"
        },
        {
          "internalType": "uint256",
          "name": "candidateIndex",
          "type": "uint256"
        }
      ],
      "name": "voteForPresident",
      "outputs": [],
      "stateMutability": "nonpayable",
      "type": "function"
    },
    {
      "inputs": [
        {
          "internalType": "string",
          "name": "county",
          "type": "string"
        }
      ],
      "name": "getGovernorCandidates",
      "outputs": [
        {
          "components": [
            {
              "internalType": "string",
              "name": "name",
              "type": "string"
            },
            {
              "internalType": "uint256",
              "name": "votes",
              "type": "uint256"
            }
          ],
          "internalType": "struct voting.Candidate[]",
          "name": "",
          "type": "tuple[]"
        }
      ],
      "stateMutability": "view",
      "type": "function",
      "constant": true
    },
    {
      "inputs": [
        {
          "internalType": "string",
          "name": "county",
          "type": "string"
        },
        {
          "internalType": "string",
          "name": "constituency",
          "type": "string"
        }
      ],
      "name": "getParliamentCandidates",
      "outputs": [
        {
          "components": [
            {
              "internalType": "string",
              "name": "name",
              "type": "string"
            },
            {
              "internalType": "uint256",
              "name": "votes",
              "type": "uint256"
            }
          ],
          "internalType": "struct voting.Candidate[]",
          "name": "",
          "type": "tuple[]"
        }
      ],
      "stateMutability": "view",
      "type": "function",
      "constant": true
    },
    {
      "inputs": [
        {
          "internalType": "string",
          "name": "county",
          "type": "string"
        },
        {
          "internalType": "uint256",
          "name": "userId",
          "type": "uint256"
        },
        {
          "internalType": "uint256",
          "name": "candidateIndex",
          "type": "uint256"
        }
      ],
      "name": "voteForGovernor",
      "outputs": [],
      "stateMutability": "nonpayable",
      "type": "function"
    },
    {
      "inputs": [
        {
          "internalType": "string",
          "name": "county",
          "type": "string"
        },
        {
          "internalType": "string",
          "name": "constituency",
          "type": "string"
        },
        {
          "internalType": "uint256",
          "name": "userId",
          "type": "uint256"
        },
        {
          "internalType": "uint256",
          "name": "candidateIndex",
          "type": "uint256"
        }
      ],
      "name": "voteForParliament",
      "outputs": [],
      "stateMutability": "nonpayable",
      "type": "function"
    }
  ],
  "bytecode": "0x6080604052600080556001805534801561001857600080fd5b50612ea6806100286000396000f3fe608060405234801561001057600080fd5b50600436106101375760003560e01c806365c06f70116100b8578063a1e6a2551161007c578063a1e6a255146103ad578063a5e51625146103cb578063b5ffbbcc146103e7578063c8046a7514610417578063d9635e0c14610433578063fbbb3d4e1461044f57610137565b806365c06f70146102db5780636ed6da9e146102f75780638311ed1a146103305780638aa32c32146103605780639a63325c1461037c57610137565b80632a29eadb116100ff5780632a29eadb146102095780632e21e1e91461023a578063365b98b2146102565780633f24ac5a1461028f5780634635fd68146102ab57610137565b806307973ccf1461013c57806312c488ee1461015a57806313c565ff1461017857806322ce12e5146101a8578063230e134a146101d8575b600080fd5b61014461046b565b6040516101519190612a94565b60405180910390f35b610162610471565b60405161016f91906128a2565b60405180910390f35b610192600480360381019061018d9190611f44565b61056c565b60405161019f91906128a2565b60405180910390f35b6101c260048036038101906101bd9190611f85565b610685565b6040516101cf91906128c4565b60405180910390f35b6101f260048036038101906101ed9190612289565b610828565b604051610200929190612924565b60405180910390f35b610223600480360381019061021e9190612344565b610907565b604051610231929190612924565b60405180910390f35b610254600480360381019061024f9190611f85565b6109c3565b005b610270600480360381019061026b9190612344565b610a82565b6040516102869a99989796959493929190612aaf565b60405180910390f35b6102a960048036038101906102a4919061236d565b610d3d565b005b6102c560048036038101906102c09190612344565b610dd2565b6040516102d29190612a94565b60405180910390f35b6102f560048036038101906102f09190612088565b610df6565b005b610311600480360381019061030c9190612344565b6110ab565b6040516103279a99989796959493929190612aaf565b60405180910390f35b61034a60048036038101906103459190611f85565b6113e9565b60405161035791906128a2565b60405180910390f35b61037a60048036038101906103759190611ff1565b61151f565b005b61039660048036038101906103919190612177565b6115fb565b6040516103a4929190612924565b60405180910390f35b6103b56116fd565b6040516103c29190612a94565b60405180910390f35b6103e560048036038101906103e091906121f6565b611703565b005b61040160048036038101906103fc9190611f1b565b611943565b60405161040e9190612a94565b60405180910390f35b610431600480360381019061042c9190611f44565b61195b565b005b61044d600480360381019061044891906123a9565b6119fd565b005b610469600480360381019061046491906122dd565b611b8f565b005b60005481565b60606006805480602002602001604051908101604052809291908181526020016000905b8282101561056357838290600052602060002090600202016040518060400160405290816000820180546104c890612d12565b80601f01602080910402602001604051908101604052809291908181526020018280546104f490612d12565b80156105415780601f1061051657610100808354040283529160200191610541565b820191906000526020600020905b81548152906001019060200180831161052457829003601f168201915b5050505050815260200160018201548152505081526020019060010190610495565b50505050905090565b606060078260405161057e919061288b565b9081526020016040518091039020805480602002602001604051908101604052809291908181526020016000905b8282101561067a57838290600052602060002090600202016040518060400160405290816000820180546105df90612d12565b80601f016020809104026020016040519081016040528092919081815260200182805461060b90612d12565b80156106585780601f1061062d57610100808354040283529160200191610658565b820191906000526020600020905b81548152906001019060200180831161063b57829003601f168201915b50505050508152602001600182015481525050815260200190600101906105ac565b505050509050919050565b60008082604051602001610699919061288b565b60405160208183030381529060405280519060200120905060005b6005805490508110156107e65760006002600060058481548110610701577f4e487b7100000000000000000000000000000000000000000000000000000000600052603260045260246000fd5b9060005260206000200154815260200190815260200160002090506107b281600201805461072e90612d12565b80601f016020809104026020016040519081016040528092919081815260200182805461075a90612d12565b80156107a75780601f1061077c576101008083540402835291602001916107a7565b820191906000526020600020905b81548152906001019060200180831161078a57829003601f168201915b505050505087611d78565b80156107c15750828160090154145b156107d25760019350505050610822565b5080806107de90612d44565b9150506106b4565b506040517f08c379a000000000000000000000000000000000000000000000000000000000815260040161081990612a14565b60405180910390fd5b92915050565b600782805160208101820180518482526020830160208501208183528095505050505050818154811061085a57600080fd5b90600052602060002090600202016000915091505080600001805461087e90612d12565b80601f01602080910402602001604051908101604052809291908181526020018280546108aa90612d12565b80156108f75780601f106108cc576101008083540402835291602001916108f7565b820191906000526020600020905b8154815290600101906020018083116108da57829003601f168201915b5050505050908060010154905082565b6006818154811061091757600080fd5b906000526020600020906002020160009150905080600001805461093a90612d12565b80601f016020809104026020016040519081016040528092919081815260200182805461096690612d12565b80156109b35780601f10610988576101008083540402835291602001916109b3565b820191906000526020600020905b81548152906001019060200180831161099657829003601f168201915b5050505050908060010154905082565b6007826040516109d3919061288b565b90815260200160405180910390206040518060400160405280838152602001600081525090806001815401808255809150506001900390600052602060002090600202016000909190919091506000820151816000019080519060200190610a3c929190611dd1565b506020820151816001015550507f7cdb51e9dbbc205231228146c3246e7f914aa6d4a33170e43ecc8e3593481d1a604051610a76906129b4565b60405180910390a15050565b60026020528060005260406000206000915090508060000154908060010160009054906101000a900473ffffffffffffffffffffffffffffffffffffffff1690806002018054610ad190612d12565b80601f0160208091040260200160405190810160405280929190818152602001828054610afd90612d12565b8015610b4a5780601f10610b1f57610100808354040283529160200191610b4a565b820191906000526020600020905b815481529060010190602001808311610b2d57829003601f168201915b505050505090806003018054610b5f90612d12565b80601f0160208091040260200160405190810160405280929190818152602001828054610b8b90612d12565b8015610bd85780601f10610bad57610100808354040283529160200191610bd8565b820191906000526020600020905b815481529060010190602001808311610bbb57829003601f168201915b505050505090806004018054610bed90612d12565b80601f0160208091040260200160405190810160405280929190818152602001828054610c1990612d12565b8015610c665780601f10610c3b57610100808354040283529160200191610c66565b820191906000526020600020905b815481529060010190602001808311610c4957829003601f168201915b505050505090806005018054610c7b90612d12565b80601f0160208091040260200160405190810160405280929190818152602001828054610ca790612d12565b8015610cf45780601f10610cc957610100808354040283529160200191610cf4565b820191906000526020600020905b815481529060010190602001808311610cd757829003601f168201915b5050505050908060060160009054906101000a900460ff16908060060160019054906101000a900460ff169080600901549080600a0160009054906101000a900460ff1690508a565b6002600083815260200190815260200160002060060160009054906101000a900460ff16610da0576040517f08c379a0000000000000000000000000000000000000000000000000000000008152600401610d97906129d4565b60405180910390fd5b8060026000848152602001908152602001600020600a0160006101000a81548160ff0219169083151502179055505050565b60058181548110610de257600080fd5b906000526020600020016000915090505481565b600060016000815480929190610e0b90612d44565b919050559050806002600083815260200190815260200160002060000181905550336002600083815260200190815260200160002060010160006101000a81548173ffffffffffffffffffffffffffffffffffffffff021916908373ffffffffffffffffffffffffffffffffffffffff16021790555085600260008381526020019081526020016000206002019080519060200190610eab929190611dd1565b5084600260008381526020019081526020016000206003019080519060200190610ed6929190611dd1565b5082600260008381526020019081526020016000206004019080519060200190610f01929190611dd1565b5081600260008381526020019081526020016000206005019080519060200190610f2c929190611dd1565b5060016002600083815260200190815260200160002060060160006101000a81548160ff02191690831515021790555060006002600083815260200190815260200160002060060160016101000a81548160ff02191690831515021790555083604051602001610f9c919061288b565b604051602081830303815290604052805190602001206002600083815260200190815260200160002060090181905550600060026000838152602001908152602001600020600a0160006101000a81548160ff021916908315150217905550600581908060018154018082558091505060019003906000526020600020016000909190919091505580600460003373ffffffffffffffffffffffffffffffffffffffff1673ffffffffffffffffffffffffffffffffffffffff168152602001908152602001600020819055507fa1a1af9c5c29e69f23e5ac29120f6a7ea106635803581b461fab3a26faeae67781878760405161109b93929190612b67565b60405180910390a1505050505050565b60008060608060608060008060008060008b1180156110cc57506000548b11155b61110b576040517f08c379a000000000000000000000000000000000000000000000000000000000815260040161110290612974565b60405180910390fd5b6000600260008d8152602001908152602001600020905080600001548160010160009054906101000a900473ffffffffffffffffffffffffffffffffffffffff16826002018360030184600401856005018660060160009054906101000a900460ff168760060160019054906101000a900460ff16886009015489600a0160009054906101000a900460ff168780546111a390612d12565b80601f01602080910402602001604051908101604052809291908181526020018280546111cf90612d12565b801561121c5780601f106111f15761010080835404028352916020019161121c565b820191906000526020600020905b8154815290600101906020018083116111ff57829003601f168201915b5050505050975086805461122f90612d12565b80601f016020809104026020016040519081016040528092919081815260200182805461125b90612d12565b80156112a85780601f1061127d576101008083540402835291602001916112a8565b820191906000526020600020905b81548152906001019060200180831161128b57829003601f168201915b505050505096508580546112bb90612d12565b80601f01602080910402602001604051908101604052809291908181526020018280546112e790612d12565b80156113345780601f1061130957610100808354040283529160200191611334565b820191906000526020600020905b81548152906001019060200180831161131757829003601f168201915b5050505050955084805461134790612d12565b80601f016020809104026020016040519081016040528092919081815260200182805461137390612d12565b80156113c05780601f10611395576101008083540402835291602001916113c0565b820191906000526020600020905b8154815290600101906020018083116113a357829003601f168201915b505050505094509a509a509a509a509a509a509a509a509a509a50509193959799509193959799565b60606008836040516113fb919061288b565b908152602001604051809103902082604051611417919061288b565b9081526020016040518091039020805480602002602001604051908101604052809291908181526020016000905b82821015611513578382906000526020600020906002020160405180604001604052908160008201805461147890612d12565b80601f01602080910402602001604051908101604052809291908181526020018280546114a490612d12565b80156114f15780601f106114c6576101008083540402835291602001916114f1565b820191906000526020600020905b8154815290600101906020018083116114d457829003601f168201915b5050505050815260200160018201548152505081526020019060010190611445565b50505050905092915050565b60088360405161152f919061288b565b90815260200160405180910390208260405161154b919061288b565b908152602001604051809103902060405180604001604052808381526020016000815250908060018154018082558091505060019003906000526020600020906002020160009091909190915060008201518160000190805190602001906115b4929190611dd1565b506020820151816001015550507f7cdb51e9dbbc205231228146c3246e7f914aa6d4a33170e43ecc8e3593481d1a6040516115ee90612a74565b60405180910390a1505050565b60088380516020810182018051848252602083016020850120818352809550505050505082805160208101820180518482526020830160208501208183528095505050505050818154811061164f57600080fd5b9060005260206000209060020201600092509250505080600001805461167490612d12565b80601f01602080910402602001604051908101604052809291908181526020018280546116a090612d12565b80156116ed5780601f106116c2576101008083540402835291602001916116ed565b820191906000526020600020905b8154815290600101906020018083116116d057829003601f168201915b5050505050908060010154905082565b60015481565b6002600083815260200190815260200160002060060160009054906101000a900460ff16611766576040517f08c379a000000000000000000000000000000000000000000000000000000000815260040161175d90612a54565b60405180910390fd5b600260008381526020019081526020016000206008018460405161178a919061288b565b9081526020016040518091039020836040516117a6919061288b565b908152602001604051809103902060009054906101000a900460ff1615611802576040517f08c379a00000000000000000000000000000000000000000000000000000000081526004016117f990612a34565b60405180910390fd5b600884604051611812919061288b565b90815260200160405180910390208360405161182e919061288b565b90815260200160405180910390208181548110611874577f4e487b7100000000000000000000000000000000000000000000000000000000600052603260045260246000fd5b9060005260206000209060020201600101600081548092919061189690612d44565b9190505550600160026000848152602001908152602001600020600801856040516118c1919061288b565b9081526020016040518091039020846040516118dd919061288b565b908152602001604051809103902060006101000a81548160ff0219169083151502179055507f8b00f84540dbbbed44c962b752df66beb1a1be4e074a685bc73165f4abd96e0d848483604051611935939291906128df565b60405180910390a150505050565b60046020528060005260406000206000915090505481565b600660405180604001604052808381526020016000815250908060018154018082558091505060019003906000526020600020906002020160009091909190915060008201518160000190805190602001906119b8929190611dd1565b506020820151816001015550507f7cdb51e9dbbc205231228146c3246e7f914aa6d4a33170e43ecc8e3593481d1a6040516119f290612994565b60405180910390a150565b6002600083815260200190815260200160002060060160009054906101000a900460ff16611a60576040517f08c379a0000000000000000000000000000000000000000000000000000000008152600401611a5790612a54565b60405180910390fd5b6002600083815260200190815260200160002060060160019054906101000a900460ff1615611ac4576040517f08c379a0000000000000000000000000000000000000000000000000000000008152600401611abb90612954565b60405180910390fd5b60068181548110611afe577f4e487b7100000000000000000000000000000000000000000000000000000000600052603260045260246000fd5b90600052602060002090600202016001016000815480929190611b2090612d44565b919050555060016002600084815260200190815260200160002060060160016101000a81548160ff0219169083151502179055507f24e5d24919cad1ac84b6054539853a7dda0bb6d4682870f8572f55c5323721ab81604051611b839190612a94565b60405180910390a15050565b6002600083815260200190815260200160002060060160009054906101000a900460ff16611bf2576040517f08c379a0000000000000000000000000000000000000000000000000000000008152600401611be990612a54565b60405180910390fd5b6002600083815260200190815260200160002060070183604051611c16919061288b565b908152602001604051809103902060009054906101000a900460ff1615611c72576040517f08c379a0000000000000000000000000000000000000000000000000000000008152600401611c69906129f4565b60405180910390fd5b600783604051611c82919061288b565b90815260200160405180910390208181548110611cc8577f4e487b7100000000000000000000000000000000000000000000000000000000600052603260045260246000fd5b90600052602060002090600202016001016000815480929190611cea90612d44565b919050555060016002600084815260200190815260200160002060070184604051611d15919061288b565b908152602001604051809103902060006101000a81548160ff0219169083151502179055507ffb08544030e4038d16b8c77635e4acfe58a02d2fa640f0b12b61f82005fe98b68382604051611d6b929190612924565b60405180910390a1505050565b600081604051602001611d8b919061288b565b6040516020818303038152906040528051906020012083604051602001611db2919061288b565b6040516020818303038152906040528051906020012014905092915050565b828054611ddd90612d12565b90600052602060002090601f016020900481019282611dff5760008555611e46565b82601f10611e1857805160ff1916838001178555611e46565b82800160010185558215611e46579182015b82811115611e45578251825591602001919060010190611e2a565b5b509050611e539190611e57565b5090565b5b80821115611e70576000816000905550600101611e58565b5090565b6000611e87611e8284612bdd565b612bac565b905082815260208101848484011115611e9f57600080fd5b611eaa848285612cd0565b509392505050565b600081359050611ec181612e2b565b92915050565b600081359050611ed681612e42565b92915050565b600082601f830112611eed57600080fd5b8135611efd848260208601611e74565b91505092915050565b600081359050611f1581612e59565b92915050565b600060208284031215611f2d57600080fd5b6000611f3b84828501611eb2565b91505092915050565b600060208284031215611f5657600080fd5b600082013567ffffffffffffffff811115611f7057600080fd5b611f7c84828501611edc565b91505092915050565b60008060408385031215611f9857600080fd5b600083013567ffffffffffffffff811115611fb257600080fd5b611fbe85828601611edc565b925050602083013567ffffffffffffffff811115611fdb57600080fd5b611fe785828601611edc565b9150509250929050565b60008060006060848603121561200657600080fd5b600084013567ffffffffffffffff81111561202057600080fd5b61202c86828701611edc565b935050602084013567ffffffffffffffff81111561204957600080fd5b61205586828701611edc565b925050604084013567ffffffffffffffff81111561207257600080fd5b61207e86828701611edc565b9150509250925092565b600080600080600060a086880312156120a057600080fd5b600086013567ffffffffffffffff8111156120ba57600080fd5b6120c688828901611edc565b955050602086013567ffffffffffffffff8111156120e357600080fd5b6120ef88828901611edc565b945050604086013567ffffffffffffffff81111561210c57600080fd5b61211888828901611edc565b935050606086013567ffffffffffffffff81111561213557600080fd5b61214188828901611edc565b925050608086013567ffffffffffffffff81111561215e57600080fd5b61216a88828901611edc565b9150509295509295909350565b60008060006060848603121561218c57600080fd5b600084013567ffffffffffffffff8111156121a657600080fd5b6121b286828701611edc565b935050602084013567ffffffffffffffff8111156121cf57600080fd5b6121db86828701611edc565b92505060406121ec86828701611f06565b9150509250925092565b6000806000806080858703121561220c57600080fd5b600085013567ffffffffffffffff81111561222657600080fd5b61223287828801611edc565b945050602085013567ffffffffffffffff81111561224f57600080fd5b61225b87828801611edc565b935050604061226c87828801611f06565b925050606061227d87828801611f06565b91505092959194509250565b6000806040838503121561229c57600080fd5b600083013567ffffffffffffffff8111156122b657600080fd5b6122c285828601611edc565b92505060206122d385828601611f06565b9150509250929050565b6000806000606084860312156122f257600080fd5b600084013567ffffffffffffffff81111561230c57600080fd5b61231886828701611edc565b935050602061232986828701611f06565b925050604061233a86828701611f06565b9150509250925092565b60006020828403121561235657600080fd5b600061236484828501611f06565b91505092915050565b6000806040838503121561238057600080fd5b600061238e85828601611f06565b925050602061239f85828601611ec7565b9150509250929050565b600080604083850312156123bc57600080fd5b60006123ca85828601611f06565b92505060206123db85828601611f06565b9150509250929050565b60006123f18383612830565b905092915050565b61240281612c7e565b82525050565b600061241382612c1d565b61241d8185612c40565b93508360208202850161242f85612c0d565b8060005b8581101561246b578484038952815161244c85826123e5565b945061245783612c33565b925060208a01995050600181019050612433565b50829750879550505050505092915050565b61248681612c90565b82525050565b61249581612c9c565b82525050565b60006124a682612c28565b6124b08185612c51565b93506124c0818560208601612cdf565b6124c981612e1a565b840191505092915050565b60006124df82612c28565b6124e98185612c62565b93506124f9818560208601612cdf565b61250281612e1a565b840191505092915050565b600061251882612c28565b6125228185612c73565b9350612532818560208601612cdf565b80840191505092915050565b600061254b601b83612c62565b91507f416c726561647920766f74656420666f7220707265736964656e7400000000006000830152602082019050919050565b600061258b601683612c62565b91507f5573657220494420646f6573206e6f74206578697374000000000000000000006000830152602082019050919050565b60006125cb601c83612c62565b91507f507265736964656e7469616c2063616e646964617465206164646564000000006000830152602082019050919050565b600061260b601883612c62565b91507f476f7665726e6f722063616e64696461746520616464656400000000000000006000830152602082019050919050565b600061264b600e83612c62565b91507f55736572206e6f7420666f756e640000000000000000000000000000000000006000830152602082019050919050565b600061268b602983612c62565b91507f416c726561647920766f74656420666f7220676f7665726e6f7220696e20746860008301527f697320636f756e747900000000000000000000000000000000000000000000006020830152604082019050919050565b60006126f1602583612c62565b91507f55736572206e6f7420666f756e64206f7220696e636f7272656374207061737360008301527f776f72642e0000000000000000000000000000000000000000000000000000006020830152604082019050919050565b6000612757603183612c62565b91507f416c726561647920766f74656420666f72207061726c69616d656e7420696e2060008301527f7468697320636f6e7374697475656e63790000000000000000000000000000006020830152604082019050919050565b60006127bd601783612c62565b91507f566f746572206973206e6f7420726567697374657265640000000000000000006000830152602082019050919050565b60006127fd601a83612c62565b91507f5061726c69616d656e742063616e6469646174652061646465640000000000006000830152602082019050919050565b6000604083016000830151848203600086015261284d828261249b565b9150506020830151612862602086018261286d565b508091505092915050565b61287681612cc6565b82525050565b61288581612cc6565b82525050565b6000612897828461250d565b915081905092915050565b600060208201905081810360008301526128bc8184612408565b905092915050565b60006020820190506128d9600083018461247d565b92915050565b600060608201905081810360008301526128f981866124d4565b9050818103602083015261290d81856124d4565b905061291c604083018461287c565b949350505050565b6000604082019050818103600083015261293e81856124d4565b905061294d602083018461287c565b9392505050565b6000602082019050818103600083015261296d8161253e565b9050919050565b6000602082019050818103600083015261298d8161257e565b9050919050565b600060208201905081810360008301526129ad816125be565b9050919050565b600060208201905081810360008301526129cd816125fe565b9050919050565b600060208201905081810360008301526129ed8161263e565b9050919050565b60006020820190508181036000830152612a0d8161267e565b9050919050565b60006020820190508181036000830152612a2d816126e4565b9050919050565b60006020820190508181036000830152612a4d8161274a565b9050919050565b60006020820190508181036000830152612a6d816127b0565b9050919050565b60006020820190508181036000830152612a8d816127f0565b9050919050565b6000602082019050612aa9600083018461287c565b92915050565b600061014082019050612ac5600083018d61287c565b612ad2602083018c6123f9565b8181036040830152612ae4818b6124d4565b90508181036060830152612af8818a6124d4565b90508181036080830152612b0c81896124d4565b905081810360a0830152612b2081886124d4565b9050612b2f60c083018761247d565b612b3c60e083018661247d565b612b4a61010083018561248c565b612b5861012083018461247d565b9b9a5050505050505050505050565b6000606082019050612b7c600083018661287c565b8181036020830152612b8e81856124d4565b90508181036040830152612ba281846124d4565b9050949350505050565b6000604051905081810181811067ffffffffffffffff82111715612bd357612bd2612deb565b5b8060405250919050565b600067ffffffffffffffff821115612bf857612bf7612deb565b5b601f19601f8301169050602081019050919050565b6000819050602082019050919050565b600081519050919050565b600081519050919050565b6000602082019050919050565b600082825260208201905092915050565b600082825260208201905092915050565b600082825260208201905092915050565b600081905092915050565b6000612c8982612ca6565b9050919050565b60008115159050919050565b6000819050919050565b600073ffffffffffffffffffffffffffffffffffffffff82169050919050565b6000819050919050565b82818337600083830152505050565b60005b83811015612cfd578082015181840152602081019050612ce2565b83811115612d0c576000848401525b50505050565b60006002820490506001821680612d2a57607f821691505b60208210811415612d3e57612d3d612dbc565b5b50919050565b6000612d4f82612cc6565b91507fffffffffffffffffffffffffffffffffffffffffffffffffffffffffffffffff821415612d8257612d81612d8d565b5b600182019050919050565b7f4e487b7100000000000000000000000000000000000000000000000000000000600052601160045260246000fd5b7f4e487b7100000000000000000000000000000000000000000000000000000000600052602260045260246000fd5b7f4e487b7100000000000000000000000000000000000000000000000000000000600052604160045260246000fd5b6000601f19601f8301169050919050565b612e3481612c7e565b8114612e3f57600080fd5b50565b612e4b81612c90565b8114612e5657600080fd5b50565b612e6281612cc6565b8114612e6d57600080fd5b5056fea26469706673582212203001c7fef9284015012df8986831eb26a05d909052cc2b492b2bcefbf6c6fcff64736f6c63430008000033",
  "immutableReferences": {},
  "source": "// SPDX-License-Identifier: MIT\r\npragma solidity ^0.8.0;\r\n\r\ncontract voting {\r\n    uint256 public userCount = 0;\r\n    uint256 public nextUserId = 1;\r\n\r\n    struct User {\r\n        uint256 userId;\r\n        address userAddress;\r\n        string username;\r\n        string email;\r\n        string county;\r\n        string constituency;\r\n        bool isRegistered;\r\n        bool hasVotedPresidential;\r\n        mapping(string => bool) hasVotedGovernor;\r\n        mapping(string => mapping(string => bool)) hasVotedParliament;\r\n        bytes32 passwordHash;\r\n        bool isAdmin;\r\n    }\r\n\r\n    struct Candidate {\r\n        string name;\r\n        uint256 votes;\r\n    }\r\n\r\n    mapping(uint256 => User) public users; // Mapping to store users by ID\r\n    mapping(string => bool) private usernames; // Mapping to store usernames for uniqueness check\r\n    mapping(address => uint256) public addressToUserId; // Mapping to store user ID by address\r\n    uint256[] public userIds; // Array to store user IDs\r\n    Candidate[] public presidentialCandidates;\r\n    mapping(string => Candidate[]) public governorCandidates;\r\n    mapping(string => mapping(string => Candidate[]))\r\n        public parliamentCandidates;\r\n\r\n    event UserCreated(uint256 userId, string username, string email);\r\n    event UserLoggedIn(string username);\r\n    event VoteForPresident(uint256 candidateIndex);\r\n    event VoteForGovernor(string county, uint256 candidateIndex);\r\n    event VoteForParliament(string county, string constituency, uint256 candidateIndex);\r\n    event Debug(string message);\r\n\r\n    function createUser(\r\n        string memory _username,\r\n        string memory _email,\r\n        string memory _password,\r\n        string memory _county,\r\n        string memory _constituency\r\n    ) public {\r\n        uint256 userId = nextUserId++;\r\n\r\n        users[userId].userId = userId;\r\n        users[userId].userAddress = msg.sender;\r\n        users[userId].username = _username;\r\n        users[userId].email = _email;\r\n        users[userId].county = _county;\r\n        users[userId].constituency = _constituency;\r\n        users[userId].isRegistered = true;\r\n        users[userId].hasVotedPresidential = false;\r\n        users[userId].passwordHash = keccak256(abi.encodePacked(_password));\r\n        users[userId].isAdmin = false;\r\n\r\n        userIds.push(userId); // Store the user ID in the array\r\n        addressToUserId[msg.sender] = userId; // Map the address to the user ID\r\n\r\n        emit UserCreated(userId, _username, _email);\r\n    }\r\n\r\n    function getUserById(uint256 userId) public view returns (\r\n        uint256, address, string memory, string memory, string memory, string memory, \r\n        bool, bool, bytes32, bool\r\n    ) {\r\n        require(userId > 0 && userId <= userCount, \"User ID does not exist\");\r\n        User storage user = users[userId];\r\n        return (\r\n            user.userId,\r\n            user.userAddress,\r\n            user.username,\r\n            user.email,\r\n            user.county,\r\n            user.constituency,\r\n            user.isRegistered,\r\n            user.hasVotedPresidential,\r\n            user.passwordHash,\r\n            user.isAdmin\r\n        );\r\n    }\r\n\r\n    function compareStrings(string memory a, string memory b)\r\n        internal\r\n        pure\r\n        returns (bool)\r\n    {\r\n        return (keccak256(abi.encodePacked(a)) ==\r\n            keccak256(abi.encodePacked(b)));\r\n    }\r\n\r\n    function loginUser(string memory _username, string memory _password)\r\n        public\r\n        view\r\n        returns (bool)\r\n    {\r\n        bytes32 passwordHash = keccak256(abi.encodePacked(_password));\r\n        for (uint256 i = 0; i < userIds.length; i++) {\r\n            User storage user = users[userIds[i]];\r\n            if (\r\n                compareStrings(user.username, _username) &&\r\n                user.passwordHash == passwordHash\r\n            ) {\r\n                return true;\r\n            }\r\n        }\r\n        revert(\"User not found or incorrect password.\");\r\n    }\r\n\r\n    function setAdmin(uint256 userId, bool _isAdmin) public {\r\n        require(users[userId].isRegistered, \"User not found\");\r\n        users[userId].isAdmin = _isAdmin;\r\n    }\r\n\r\n    function addPresidentialCandidate(string memory name) public {\r\n        presidentialCandidates.push(Candidate(name, 0));\r\n        emit Debug(\"Presidential candidate added\");\r\n    }\r\n\r\n    function addGovernorCandidate(string memory county, string memory name) public {\r\n        governorCandidates[county].push(Candidate(name, 0));\r\n        emit Debug(\"Governor candidate added\");\r\n    }\r\n\r\n    function addParliamentCandidate(string memory county, string memory constituency, string memory name) public {\r\n        parliamentCandidates[county][constituency].push(Candidate(name, 0));\r\n        emit Debug(\"Parliament candidate added\");\r\n    }\r\n\r\n    function getPresidentialCandidates()\r\n        public\r\n        view\r\n        returns (Candidate[] memory)\r\n    {\r\n        return presidentialCandidates;\r\n    }\r\n\r\n    function voteForPresident(uint256 userId, uint256 candidateIndex) public {\r\n        require(users[userId].isRegistered, \"Voter is not registered\");\r\n        require(\r\n            !users[userId].hasVotedPresidential,\r\n            \"Already voted for president\"\r\n        );\r\n\r\n        presidentialCandidates[candidateIndex].votes++;\r\n        users[userId].hasVotedPresidential = true;\r\n\r\n        emit VoteForPresident(candidateIndex);\r\n    }\r\n\r\n    function getGovernorCandidates(string memory county) public view returns (Candidate[] memory) {\r\n        return governorCandidates[county];\r\n    }\r\n\r\n    function getParliamentCandidates(string memory county, string memory constituency) public view returns (Candidate[] memory) {\r\n        return parliamentCandidates[county][constituency];\r\n    }\r\n\r\n\r\n    function voteForGovernor(string memory county, uint256 userId, uint256 candidateIndex) public {\r\n        require(users[userId].isRegistered, \"Voter is not registered\");\r\n        require(!users[userId].hasVotedGovernor[county], \"Already voted for governor in this county\");\r\n\r\n        governorCandidates[county][candidateIndex].votes++;\r\n        users[userId].hasVotedGovernor[county] = true;\r\n\r\n        emit VoteForGovernor(county, candidateIndex);\r\n    }\r\n\r\n    function voteForParliament(string memory county, string memory constituency, uint256 userId, uint256 candidateIndex) public {\r\n        require(users[userId].isRegistered, \"Voter is not registered\");\r\n        require(!users[userId].hasVotedParliament[county][constituency],\r\n            \"Already voted for parliament in this constituency\"\r\n        );\r\n\r\n        parliamentCandidates[county][constituency][candidateIndex].votes++;\r\n        users[userId].hasVotedParliament[county][constituency] = true;\r\n\r\n        emit VoteForParliament(county, constituency, candidateIndex);\r\n    }\r\n}\r\n",
  "sourcePath": "C:\\blockchain-voting-system\\blockchain\\contracts\\voting.sol",
  "compiler": {
    "name": "solc",
    "version": "0.8.0+commit.c7dfd78e.Emscripten.clang"
  },
  "schemaVersion": "3.4.16",
  "updatedAt": "2024-07-15T07:49:42.034Z",
  "networkType": "ethereum",
  "devdoc": {
    "kind": "dev",
    "methods": {},
    "version": 1
  },
  "userdoc": {
    "kind": "user",
    "methods": {},
    "version": 1
  }
}