{
  "contractName": "Voting",
  "abi": [
    {
      "anonymous": false,
      "inputs": [
        {
          "indexed": false,
          "internalType": "string",
          "name": "message",
          "type": "string"
        }
      ],
      "name": "Debug",
      "type": "event"
    },
    {
      "anonymous": false,
      "inputs": [
        {
          "indexed": false,
          "internalType": "string",
          "name": "county",
          "type": "string"
        },
        {
          "indexed": false,
          "internalType": "uint256",
          "name": "candidateIndex",
          "type": "uint256"
        }
      ],
      "name": "VoteForGovernor",
      "type": "event"
    },
    {
      "anonymous": false,
      "inputs": [
        {
          "indexed": false,
          "internalType": "string",
          "name": "county",
          "type": "string"
        },
        {
          "indexed": false,
          "internalType": "string",
          "name": "constituency",
          "type": "string"
        },
        {
          "indexed": false,
          "internalType": "uint256",
          "name": "candidateIndex",
          "type": "uint256"
        }
      ],
      "name": "VoteForParliament",
      "type": "event"
    },
    {
      "anonymous": false,
      "inputs": [
        {
          "indexed": false,
          "internalType": "uint256",
          "name": "candidateIndex",
          "type": "uint256"
        }
      ],
      "name": "VoteForPresident",
      "type": "event"
    },
    {
      "anonymous": false,
      "inputs": [
        {
          "indexed": false,
          "internalType": "address",
          "name": "voter",
          "type": "address"
        }
      ],
      "name": "VoterRegistered",
      "type": "event"
    },
    {
      "inputs": [
        {
          "internalType": "string",
          "name": "",
          "type": "string"
        },
        {
          "internalType": "uint256",
          "name": "",
          "type": "uint256"
        }
      ],
      "name": "governorCandidates",
      "outputs": [
        {
          "internalType": "string",
          "name": "name",
          "type": "string"
        },
        {
          "internalType": "uint256",
          "name": "votes",
          "type": "uint256"
        }
      ],
      "stateMutability": "view",
      "type": "function",
      "constant": true
    },
    {
      "inputs": [
        {
          "internalType": "string",
          "name": "",
          "type": "string"
        },
        {
          "internalType": "string",
          "name": "",
          "type": "string"
        },
        {
          "internalType": "uint256",
          "name": "",
          "type": "uint256"
        }
      ],
      "name": "parliamentCandidates",
      "outputs": [
        {
          "internalType": "string",
          "name": "name",
          "type": "string"
        },
        {
          "internalType": "uint256",
          "name": "votes",
          "type": "uint256"
        }
      ],
      "stateMutability": "view",
      "type": "function",
      "constant": true
    },
    {
      "inputs": [
        {
          "internalType": "uint256",
          "name": "",
          "type": "uint256"
        }
      ],
      "name": "presidentialCandidates",
      "outputs": [
        {
          "internalType": "string",
          "name": "name",
          "type": "string"
        },
        {
          "internalType": "uint256",
          "name": "votes",
          "type": "uint256"
        }
      ],
      "stateMutability": "view",
      "type": "function",
      "constant": true
    },
    {
      "inputs": [
        {
          "internalType": "address",
          "name": "",
          "type": "address"
        }
      ],
      "name": "voters",
      "outputs": [
        {
          "internalType": "uint256",
          "name": "id",
          "type": "uint256"
        },
        {
          "internalType": "string",
          "name": "name",
          "type": "string"
        },
        {
          "internalType": "string",
          "name": "county",
          "type": "string"
        },
        {
          "internalType": "string",
          "name": "constituency",
          "type": "string"
        },
        {
          "internalType": "bool",
          "name": "isRegistered",
          "type": "bool"
        },
        {
          "internalType": "bool",
          "name": "hasVotedPresidential",
          "type": "bool"
        }
      ],
      "stateMutability": "view",
      "type": "function",
      "constant": true
    },
    {
      "inputs": [
        {
          "internalType": "string",
          "name": "name",
          "type": "string"
        }
      ],
      "name": "addPresidentialCandidate",
      "outputs": [],
      "stateMutability": "nonpayable",
      "type": "function"
    },
    {
      "inputs": [],
      "name": "getPresidentialCandidates",
      "outputs": [
        {
          "components": [
            {
              "internalType": "string",
              "name": "name",
              "type": "string"
            },
            {
              "internalType": "uint256",
              "name": "votes",
              "type": "uint256"
            }
          ],
          "internalType": "struct Voting.Candidate[]",
          "name": "",
          "type": "tuple[]"
        }
      ],
      "stateMutability": "view",
      "type": "function",
      "constant": true
    },
    {
      "inputs": [
        {
          "internalType": "string",
          "name": "county",
          "type": "string"
        },
        {
          "internalType": "string",
          "name": "name",
          "type": "string"
        }
      ],
      "name": "addGovernorCandidate",
      "outputs": [],
      "stateMutability": "nonpayable",
      "type": "function"
    },
    {
      "inputs": [
        {
          "internalType": "string",
          "name": "county",
          "type": "string"
        }
      ],
      "name": "getGovernorCandidates",
      "outputs": [
        {
          "components": [
            {
              "internalType": "string",
              "name": "name",
              "type": "string"
            },
            {
              "internalType": "uint256",
              "name": "votes",
              "type": "uint256"
            }
          ],
          "internalType": "struct Voting.Candidate[]",
          "name": "",
          "type": "tuple[]"
        }
      ],
      "stateMutability": "view",
      "type": "function",
      "constant": true
    },
    {
      "inputs": [
        {
          "internalType": "string",
          "name": "county",
          "type": "string"
        },
        {
          "internalType": "string",
          "name": "constituency",
          "type": "string"
        },
        {
          "internalType": "string",
          "name": "name",
          "type": "string"
        }
      ],
      "name": "addParliamentCandidate",
      "outputs": [],
      "stateMutability": "nonpayable",
      "type": "function"
    },
    {
      "inputs": [
        {
          "internalType": "uint256",
          "name": "candidateIndex",
          "type": "uint256"
        }
      ],
      "name": "voteForPresident",
      "outputs": [],
      "stateMutability": "nonpayable",
      "type": "function"
    },
    {
      "inputs": [
        {
          "internalType": "uint256",
          "name": "id",
          "type": "uint256"
        },
        {
          "internalType": "string",
          "name": "name",
          "type": "string"
        },
        {
          "internalType": "string",
          "name": "county",
          "type": "string"
        },
        {
          "internalType": "string",
          "name": "constituency",
          "type": "string"
        }
      ],
      "name": "registerVoter",
      "outputs": [],
      "stateMutability": "nonpayable",
      "type": "function"
    },
    {
      "inputs": [
        {
          "internalType": "string",
          "name": "county",
          "type": "string"
        },
        {
          "internalType": "string",
          "name": "constituency",
          "type": "string"
        }
      ],
      "name": "getParliamentCandidates",
      "outputs": [
        {
          "components": [
            {
              "internalType": "string",
              "name": "name",
              "type": "string"
            },
            {
              "internalType": "uint256",
              "name": "votes",
              "type": "uint256"
            }
          ],
          "internalType": "struct Voting.Candidate[]",
          "name": "",
          "type": "tuple[]"
        }
      ],
      "stateMutability": "view",
      "type": "function",
      "constant": true
    }
  ],
  "bytecode": "0x608060405234801561001057600080fd5b50611b61806100206000396000f3fe608060405234801561001057600080fd5b50600436106100b45760003560e01c80638311ed1a116100715780638311ed1a146101a15780638aa32c32146101d15780639a63325c146101ed578063a3ec138d1461021e578063ab1e56f614610253578063c8046a751461026f576100b4565b806312c488ee146100b957806313c565ff146100d7578063230e134a146101075780632a29eadb146101385780632e21e1e9146101695780634541bfd514610185575b600080fd5b6100c161028b565b6040516100ce9190611705565b60405180910390f35b6100f160048036038101906100ec9190611103565b610386565b6040516100fe9190611705565b60405180910390f35b610121600480360381019061011c91906112c6565b61049f565b60405161012f929190611727565b60405180910390f35b610152600480360381019061014d919061131a565b61057e565b604051610160929190611727565b60405180910390f35b610183600480360381019061017e9190611144565b61063a565b005b61019f600480360381019061019a9190611343565b6106f9565b005b6101bb60048036038101906101b69190611144565b61087b565b6040516101c89190611705565b60405180910390f35b6101eb60048036038101906101e691906111b0565b6109b1565b005b61020760048036038101906102029190611247565b610a8d565b604051610215929190611727565b60405180910390f35b610238600480360381019061023391906110da565b610b8f565b60405161024a96959493929190611812565b60405180910390f35b61026d6004803603810190610268919061131a565b610d7d565b005b61028960048036038101906102849190611103565b610f03565b005b60606000805480602002602001604051908101604052809291908181526020016000905b8282101561037d57838290600052602060002090600202016040518060400160405290816000820180546102e2906119e4565b80601f016020809104026020016040519081016040528092919081815260200182805461030e906119e4565b801561035b5780601f106103305761010080835404028352916020019161035b565b820191906000526020600020905b81548152906001019060200180831161033e57829003601f168201915b50505050508152602001600182015481525050815260200190600101906102af565b50505050905090565b606060018260405161039891906116d3565b9081526020016040518091039020805480602002602001604051908101604052809291908181526020016000905b8282101561049457838290600052602060002090600202016040518060400160405290816000820180546103f9906119e4565b80601f0160208091040260200160405190810160405280929190818152602001828054610425906119e4565b80156104725780601f1061044757610100808354040283529160200191610472565b820191906000526020600020905b81548152906001019060200180831161045557829003601f168201915b50505050508152602001600182015481525050815260200190600101906103c6565b505050509050919050565b60018280516020810182018051848252602083016020850120818352809550505050505081815481106104d157600080fd5b9060005260206000209060020201600091509150508060000180546104f5906119e4565b80601f0160208091040260200160405190810160405280929190818152602001828054610521906119e4565b801561056e5780601f106105435761010080835404028352916020019161056e565b820191906000526020600020905b81548152906001019060200180831161055157829003601f168201915b5050505050908060010154905082565b6000818154811061058e57600080fd5b90600052602060002090600202016000915090508060000180546105b1906119e4565b80601f01602080910402602001604051908101604052809291908181526020018280546105dd906119e4565b801561062a5780601f106105ff5761010080835404028352916020019161062a565b820191906000526020600020905b81548152906001019060200180831161060d57829003601f168201915b5050505050908060010154905082565b60018260405161064a91906116d3565b908152602001604051809103902060405180604001604052808381526020016000815250908060018154018082558091505060019003906000526020600020906002020160009091909190915060008201518160000190805190602001906106b3929190610fa5565b506020820151816001015550507f7cdb51e9dbbc205231228146c3246e7f914aa6d4a33170e43ecc8e3593481d1a6040516106ed90611797565b60405180910390a15050565b600360003373ffffffffffffffffffffffffffffffffffffffff1673ffffffffffffffffffffffffffffffffffffffff16815260200190815260200160002060040160009054906101000a900460ff1615610789576040517f08c379a0000000000000000000000000000000000000000000000000000000008152600401610780906117b7565b60405180910390fd5b6000600360003373ffffffffffffffffffffffffffffffffffffffff1673ffffffffffffffffffffffffffffffffffffffff1681526020019081526020016000209050848160000181905550838160010190805190602001906107ed929190610fa5565b5082816002019080519060200190610806929190610fa5565b508181600301908051906020019061081f929190610fa5565b5060018160040160006101000a81548160ff0219169083151502179055507fb6be2187d059cc2a55fe29e0e503b566e1e0f8c8780096e185429350acffd3dd3360405161086c91906116ea565b60405180910390a15050505050565b606060028360405161088d91906116d3565b9081526020016040518091039020826040516108a991906116d3565b9081526020016040518091039020805480602002602001604051908101604052809291908181526020016000905b828210156109a5578382906000526020600020906002020160405180604001604052908160008201805461090a906119e4565b80601f0160208091040260200160405190810160405280929190818152602001828054610936906119e4565b80156109835780601f1061095857610100808354040283529160200191610983565b820191906000526020600020905b81548152906001019060200180831161096657829003601f168201915b50505050508152602001600182015481525050815260200190600101906108d7565b50505050905092915050565b6002836040516109c191906116d3565b9081526020016040518091039020826040516109dd91906116d3565b90815260200160405180910390206040518060400160405280838152602001600081525090806001815401808255809150506001900390600052602060002090600202016000909190919091506000820151816000019080519060200190610a46929190610fa5565b506020820151816001015550507f7cdb51e9dbbc205231228146c3246e7f914aa6d4a33170e43ecc8e3593481d1a604051610a80906117d7565b60405180910390a1505050565b600283805160208101820180518482526020830160208501208183528095505050505050828051602081018201805184825260208301602085012081835280955050505050508181548110610ae157600080fd5b90600052602060002090600202016000925092505050806000018054610b06906119e4565b80601f0160208091040260200160405190810160405280929190818152602001828054610b32906119e4565b8015610b7f5780601f10610b5457610100808354040283529160200191610b7f565b820191906000526020600020905b815481529060010190602001808311610b6257829003601f168201915b5050505050908060010154905082565b6003602052806000526040600020600091509050806000015490806001018054610bb8906119e4565b80601f0160208091040260200160405190810160405280929190818152602001828054610be4906119e4565b8015610c315780601f10610c0657610100808354040283529160200191610c31565b820191906000526020600020905b815481529060010190602001808311610c1457829003601f168201915b505050505090806002018054610c46906119e4565b80601f0160208091040260200160405190810160405280929190818152602001828054610c72906119e4565b8015610cbf5780601f10610c9457610100808354040283529160200191610cbf565b820191906000526020600020905b815481529060010190602001808311610ca257829003601f168201915b505050505090806003018054610cd4906119e4565b80601f0160208091040260200160405190810160405280929190818152602001828054610d00906119e4565b8015610d4d5780601f10610d2257610100808354040283529160200191610d4d565b820191906000526020600020905b815481529060010190602001808311610d3057829003601f168201915b5050505050908060040160009054906101000a900460ff16908060040160019054906101000a900460ff16905086565b600360003373ffffffffffffffffffffffffffffffffffffffff1673ffffffffffffffffffffffffffffffffffffffff16815260200190815260200160002060040160019054906101000a900460ff1615610e0d576040517f08c379a0000000000000000000000000000000000000000000000000000000008152600401610e0490611757565b60405180910390fd5b60008181548110610e47577f4e487b7100000000000000000000000000000000000000000000000000000000600052603260045260246000fd5b90600052602060002090600202016001016000815480929190610e6990611a16565b91905055506001600360003373ffffffffffffffffffffffffffffffffffffffff1673ffffffffffffffffffffffffffffffffffffffff16815260200190815260200160002060040160016101000a81548160ff0219169083151502179055507f24e5d24919cad1ac84b6054539853a7dda0bb6d4682870f8572f55c5323721ab81604051610ef891906117f7565b60405180910390a150565b60006040518060400160405280838152602001600081525090806001815401808255809150506001900390600052602060002090600202016000909190919091506000820151816000019080519060200190610f60929190610fa5565b506020820151816001015550507f7cdb51e9dbbc205231228146c3246e7f914aa6d4a33170e43ecc8e3593481d1a604051610f9a90611777565b60405180910390a150565b828054610fb1906119e4565b90600052602060002090601f016020900481019282610fd3576000855561101a565b82601f10610fec57805160ff191683800117855561101a565b8280016001018555821561101a579182015b82811115611019578251825591602001919060010190610ffe565b5b509050611027919061102b565b5090565b5b8082111561104457600081600090555060010161102c565b5090565b600061105b611056846118b9565b611888565b90508281526020810184848401111561107357600080fd5b61107e8482856119a2565b509392505050565b60008135905061109581611afd565b92915050565b600082601f8301126110ac57600080fd5b81356110bc848260208601611048565b91505092915050565b6000813590506110d481611b14565b92915050565b6000602082840312156110ec57600080fd5b60006110fa84828501611086565b91505092915050565b60006020828403121561111557600080fd5b600082013567ffffffffffffffff81111561112f57600080fd5b61113b8482850161109b565b91505092915050565b6000806040838503121561115757600080fd5b600083013567ffffffffffffffff81111561117157600080fd5b61117d8582860161109b565b925050602083013567ffffffffffffffff81111561119a57600080fd5b6111a68582860161109b565b9150509250929050565b6000806000606084860312156111c557600080fd5b600084013567ffffffffffffffff8111156111df57600080fd5b6111eb8682870161109b565b935050602084013567ffffffffffffffff81111561120857600080fd5b6112148682870161109b565b925050604084013567ffffffffffffffff81111561123157600080fd5b61123d8682870161109b565b9150509250925092565b60008060006060848603121561125c57600080fd5b600084013567ffffffffffffffff81111561127657600080fd5b6112828682870161109b565b935050602084013567ffffffffffffffff81111561129f57600080fd5b6112ab8682870161109b565b92505060406112bc868287016110c5565b9150509250925092565b600080604083850312156112d957600080fd5b600083013567ffffffffffffffff8111156112f357600080fd5b6112ff8582860161109b565b9250506020611310858286016110c5565b9150509250929050565b60006020828403121561132c57600080fd5b600061133a848285016110c5565b91505092915050565b6000806000806080858703121561135957600080fd5b6000611367878288016110c5565b945050602085013567ffffffffffffffff81111561138457600080fd5b6113908782880161109b565b935050604085013567ffffffffffffffff8111156113ad57600080fd5b6113b98782880161109b565b925050606085013567ffffffffffffffff8111156113d657600080fd5b6113e28782880161109b565b91505092959194509250565b60006113fa8383611678565b905092915050565b61140b8161195a565b82525050565b600061141c826118f9565b611426818561191c565b935083602082028501611438856118e9565b8060005b85811015611474578484038952815161145585826113ee565b94506114608361190f565b925060208a0199505060018101905061143c565b50829750879550505050505092915050565b61148f8161196c565b82525050565b60006114a082611904565b6114aa818561192d565b93506114ba8185602086016119b1565b6114c381611aec565b840191505092915050565b60006114d982611904565b6114e3818561193e565b93506114f38185602086016119b1565b6114fc81611aec565b840191505092915050565b600061151282611904565b61151c818561194f565b935061152c8185602086016119b1565b80840191505092915050565b6000611545601b8361193e565b91507f416c726561647920766f74656420666f7220707265736964656e7400000000006000830152602082019050919050565b6000611585601c8361193e565b91507f507265736964656e7469616c2063616e646964617465206164646564000000006000830152602082019050919050565b60006115c560188361193e565b91507f476f7665726e6f722063616e64696461746520616464656400000000000000006000830152602082019050919050565b6000611605601b8361193e565b91507f566f74657220697320616c7265616479207265676973746572656400000000006000830152602082019050919050565b6000611645601a8361193e565b91507f5061726c69616d656e742063616e6469646174652061646465640000000000006000830152602082019050919050565b600060408301600083015184820360008601526116958282611495565b91505060208301516116aa60208601826116b5565b508091505092915050565b6116be81611998565b82525050565b6116cd81611998565b82525050565b60006116df8284611507565b915081905092915050565b60006020820190506116ff6000830184611402565b92915050565b6000602082019050818103600083015261171f8184611411565b905092915050565b6000604082019050818103600083015261174181856114ce565b905061175060208301846116c4565b9392505050565b6000602082019050818103600083015261177081611538565b9050919050565b6000602082019050818103600083015261179081611578565b9050919050565b600060208201905081810360008301526117b0816115b8565b9050919050565b600060208201905081810360008301526117d0816115f8565b9050919050565b600060208201905081810360008301526117f081611638565b9050919050565b600060208201905061180c60008301846116c4565b92915050565b600060c08201905061182760008301896116c4565b818103602083015261183981886114ce565b9050818103604083015261184d81876114ce565b9050818103606083015261186181866114ce565b90506118706080830185611486565b61187d60a0830184611486565b979650505050505050565b6000604051905081810181811067ffffffffffffffff821117156118af576118ae611abd565b5b8060405250919050565b600067ffffffffffffffff8211156118d4576118d3611abd565b5b601f19601f8301169050602081019050919050565b6000819050602082019050919050565b600081519050919050565b600081519050919050565b6000602082019050919050565b600082825260208201905092915050565b600082825260208201905092915050565b600082825260208201905092915050565b600081905092915050565b600061196582611978565b9050919050565b60008115159050919050565b600073ffffffffffffffffffffffffffffffffffffffff82169050919050565b6000819050919050565b82818337600083830152505050565b60005b838110156119cf5780820151818401526020810190506119b4565b838111156119de576000848401525b50505050565b600060028204905060018216806119fc57607f821691505b60208210811415611a1057611a0f611a8e565b5b50919050565b6000611a2182611998565b91507fffffffffffffffffffffffffffffffffffffffffffffffffffffffffffffffff821415611a5457611a53611a5f565b5b600182019050919050565b7f4e487b7100000000000000000000000000000000000000000000000000000000600052601160045260246000fd5b7f4e487b7100000000000000000000000000000000000000000000000000000000600052602260045260246000fd5b7f4e487b7100000000000000000000000000000000000000000000000000000000600052604160045260246000fd5b6000601f19601f8301169050919050565b611b068161195a565b8114611b1157600080fd5b50565b611b1d81611998565b8114611b2857600080fd5b5056fea264697066735822122068d376e0a325580392713381237fbca6a304c3650a2ddc4bcefbc9bbdaa5cf7b64736f6c63430008000033",
  "immutableReferences": {},
  "source": "// SPDX-License-Identifier: MIT\r\n\r\npragma solidity ^0.8.0;\r\n\r\ncontract Voting {\r\n    // Defines a new contract named \"Voting\".\r\n\r\n    struct Candidate {\r\n        // Defines a struct (similar to a class) to represent a candidate.\r\n        string name; // The candidate's name.\r\n        uint256 votes; // The number of votes the candidate has received.\r\n    }\r\n\r\n    Candidate[] public presidentialCandidates;\r\n    mapping(string => Candidate[]) public governorCandidates;\r\n    mapping(string => mapping(string => Candidate[]))\r\n        public parliamentCandidates;\r\n\r\n    event VoteForPresident(uint256 candidateIndex);\r\n    event VoteForGovernor(string county, uint256 candidateIndex);\r\n    event VoteForParliament(\r\n        string county,\r\n        string constituency,\r\n        uint256 candidateIndex\r\n    );\r\n\r\n    event VoterRegistered(address voter);\r\n\r\n    struct Voter {\r\n        uint256 id;\r\n        string name;\r\n        string county;\r\n        string constituency;\r\n        bool isRegistered;\r\n        bool hasVotedPresidential;\r\n        mapping(string => bool) hasVotedGovernor;\r\n        mapping(string => mapping(string => bool)) hasVotedParliament;\r\n    }\r\n\r\n    mapping(address => Voter) public voters;\r\n\r\n    // Function to add a presidential candidate.\r\n    function addPresidentialCandidate(string memory name) public {\r\n        presidentialCandidates.push(Candidate(name, 0));\r\n        emit Debug(\"Presidential candidate added\");\r\n    }\r\n    event Debug(string message);\r\n\r\n    function getPresidentialCandidates()\r\n        public\r\n        view\r\n        returns (Candidate[] memory)\r\n    {\r\n        return presidentialCandidates;\r\n        // Returns the array of presidential candidates.\r\n    }\r\n\r\n    function addGovernorCandidate(\r\n        string memory county,\r\n        string memory name\r\n    ) public {\r\n        governorCandidates[county].push(Candidate(name, 0));\r\n        // Adds a new candidate with the given name and 0 votes to the governorCandidates array for the specified county.\r\n        emit Debug(\"Governor candidate added\");\r\n        // Emits a debug event indicating that a governor candidate was added.\r\n    }\r\n\r\n    function getGovernorCandidates(\r\n        string memory county\r\n    ) public view returns (Candidate[] memory) {\r\n        return governorCandidates[county];\r\n        // Returns the array of governor candidates for the specified county.\r\n    }\r\n\r\n    function addParliamentCandidate(\r\n        string memory county,\r\n        string memory constituency,\r\n        string memory name\r\n    ) public {\r\n        parliamentCandidates[county][constituency].push(Candidate(name, 0));\r\n        // Adds a new candidate with the given name and 0 votes to the parliamentCandidates array for the specified county and constituency.\r\n        emit Debug(\"Parliament candidate added\");\r\n        // Emits a debug event indicating that a parliament candidate was added.\r\n    }\r\n\r\n    function voteForPresident(uint256 candidateIndex) public {\r\n        require(\r\n            !voters[msg.sender].hasVotedPresidential,\r\n            \"Already voted for president\"\r\n        );\r\n        presidentialCandidates[candidateIndex].votes++;\r\n        voters[msg.sender].hasVotedPresidential = true;\r\n        emit VoteForPresident(candidateIndex);\r\n    }\r\n\r\n    function registerVoter(\r\n        uint256 id,\r\n        string memory name,\r\n        string memory county,\r\n        string memory constituency\r\n    ) public {\r\n        require(\r\n            !voters[msg.sender].isRegistered,\r\n            \"Voter is already registered\"\r\n        );\r\n        Voter storage voter = voters[msg.sender];\r\n        voter.id = id;\r\n        voter.name = name;\r\n        voter.county = county;\r\n        voter.constituency = constituency;\r\n        voter.isRegistered = true;\r\n        emit VoterRegistered(msg.sender);\r\n    }\r\n\r\n    function getParliamentCandidates(\r\n        string memory county,\r\n        string memory constituency\r\n    ) public view returns (Candidate[] memory) {\r\n        return parliamentCandidates[county][constituency];\r\n    }\r\n}\r\n",
  "sourcePath": "C:\\blockchain-voting-system\\blockchain\\contracts\\voting.sol",
  "compiler": {
    "name": "solc",
    "version": "0.8.0+commit.c7dfd78e.Emscripten.clang"
  },
  "schemaVersion": "3.4.16",
  "updatedAt": "2024-07-10T09:02:53.073Z",
  "networkType": "ethereum",
  "devdoc": {
    "kind": "dev",
    "methods": {},
    "version": 1
  },
  "userdoc": {
    "kind": "user",
    "methods": {},
    "version": 1
  }
}