{
  "contractName": "voting",
  "abi": [
    {
      "anonymous": false,
      "inputs": [
        {
          "indexed": false,
          "internalType": "string",
          "name": "message",
          "type": "string"
        }
      ],
      "name": "Debug",
      "type": "event"
    },
    {
      "anonymous": false,
      "inputs": [
        {
          "indexed": false,
          "internalType": "uint256",
          "name": "userId",
          "type": "uint256"
        },
        {
          "indexed": false,
          "internalType": "string",
          "name": "username",
          "type": "string"
        },
        {
          "indexed": false,
          "internalType": "string",
          "name": "email",
          "type": "string"
        }
      ],
      "name": "UserCreated",
      "type": "event"
    },
    {
      "anonymous": false,
      "inputs": [
        {
          "indexed": false,
          "internalType": "uint256",
          "name": "userId",
          "type": "uint256"
        },
        {
          "indexed": false,
          "internalType": "address",
          "name": "userAddress",
          "type": "address"
        },
        {
          "indexed": false,
          "internalType": "string",
          "name": "username",
          "type": "string"
        },
        {
          "indexed": false,
          "internalType": "string",
          "name": "email",
          "type": "string"
        },
        {
          "indexed": false,
          "internalType": "string",
          "name": "county",
          "type": "string"
        },
        {
          "indexed": false,
          "internalType": "string",
          "name": "constituency",
          "type": "string"
        },
        {
          "indexed": false,
          "internalType": "bool",
          "name": "isRegistered",
          "type": "bool"
        },
        {
          "indexed": false,
          "internalType": "bytes32",
          "name": "token",
          "type": "bytes32"
        }
      ],
      "name": "UserLoggedIn",
      "type": "event"
    },
    {
      "anonymous": false,
      "inputs": [
        {
          "indexed": false,
          "internalType": "string",
          "name": "county",
          "type": "string"
        },
        {
          "indexed": false,
          "internalType": "uint256",
          "name": "candidateIndex",
          "type": "uint256"
        }
      ],
      "name": "VoteForGovernor",
      "type": "event"
    },
    {
      "anonymous": false,
      "inputs": [
        {
          "indexed": false,
          "internalType": "string",
          "name": "county",
          "type": "string"
        },
        {
          "indexed": false,
          "internalType": "string",
          "name": "constituency",
          "type": "string"
        },
        {
          "indexed": false,
          "internalType": "uint256",
          "name": "candidateIndex",
          "type": "uint256"
        }
      ],
      "name": "VoteForParliament",
      "type": "event"
    },
    {
      "anonymous": false,
      "inputs": [
        {
          "indexed": false,
          "internalType": "uint256",
          "name": "candidateIndex",
          "type": "uint256"
        }
      ],
      "name": "VoteForPresident",
      "type": "event"
    },
    {
      "inputs": [
        {
          "internalType": "address",
          "name": "",
          "type": "address"
        }
      ],
      "name": "addressToUserId",
      "outputs": [
        {
          "internalType": "uint256",
          "name": "",
          "type": "uint256"
        }
      ],
      "stateMutability": "view",
      "type": "function",
      "constant": true
    },
    {
      "inputs": [
        {
          "internalType": "string",
          "name": "",
          "type": "string"
        },
        {
          "internalType": "uint256",
          "name": "",
          "type": "uint256"
        }
      ],
      "name": "governorCandidates",
      "outputs": [
        {
          "internalType": "string",
          "name": "name",
          "type": "string"
        },
        {
          "internalType": "uint256",
          "name": "votes",
          "type": "uint256"
        },
        {
          "internalType": "string",
          "name": "image",
          "type": "string"
        }
      ],
      "stateMutability": "view",
      "type": "function",
      "constant": true
    },
    {
      "inputs": [
        {
          "internalType": "address",
          "name": "",
          "type": "address"
        }
      ],
      "name": "loggedIn",
      "outputs": [
        {
          "internalType": "bool",
          "name": "",
          "type": "bool"
        }
      ],
      "stateMutability": "view",
      "type": "function",
      "constant": true
    },
    {
      "inputs": [
        {
          "internalType": "address",
          "name": "",
          "type": "address"
        }
      ],
      "name": "loginTokens",
      "outputs": [
        {
          "internalType": "bytes32",
          "name": "",
          "type": "bytes32"
        }
      ],
      "stateMutability": "view",
      "type": "function",
      "constant": true
    },
    {
      "inputs": [],
      "name": "nextUserId",
      "outputs": [
        {
          "internalType": "uint256",
          "name": "",
          "type": "uint256"
        }
      ],
      "stateMutability": "view",
      "type": "function",
      "constant": true
    },
    {
      "inputs": [
        {
          "internalType": "string",
          "name": "",
          "type": "string"
        },
        {
          "internalType": "string",
          "name": "",
          "type": "string"
        },
        {
          "internalType": "uint256",
          "name": "",
          "type": "uint256"
        }
      ],
      "name": "parliamentCandidates",
      "outputs": [
        {
          "internalType": "string",
          "name": "name",
          "type": "string"
        },
        {
          "internalType": "uint256",
          "name": "votes",
          "type": "uint256"
        },
        {
          "internalType": "string",
          "name": "image",
          "type": "string"
        }
      ],
      "stateMutability": "view",
      "type": "function",
      "constant": true
    },
    {
      "inputs": [
        {
          "internalType": "uint256",
          "name": "",
          "type": "uint256"
        }
      ],
      "name": "presidentialCandidates",
      "outputs": [
        {
          "internalType": "string",
          "name": "name",
          "type": "string"
        },
        {
          "internalType": "uint256",
          "name": "votes",
          "type": "uint256"
        },
        {
          "internalType": "string",
          "name": "image",
          "type": "string"
        }
      ],
      "stateMutability": "view",
      "type": "function",
      "constant": true
    },
    {
      "inputs": [],
      "name": "userCount",
      "outputs": [
        {
          "internalType": "uint256",
          "name": "",
          "type": "uint256"
        }
      ],
      "stateMutability": "view",
      "type": "function",
      "constant": true
    },
    {
      "inputs": [
        {
          "internalType": "uint256",
          "name": "",
          "type": "uint256"
        }
      ],
      "name": "userIds",
      "outputs": [
        {
          "internalType": "uint256",
          "name": "",
          "type": "uint256"
        }
      ],
      "stateMutability": "view",
      "type": "function",
      "constant": true
    },
    {
      "inputs": [
        {
          "internalType": "uint256",
          "name": "",
          "type": "uint256"
        }
      ],
      "name": "users",
      "outputs": [
        {
          "internalType": "uint256",
          "name": "userId",
          "type": "uint256"
        },
        {
          "internalType": "address",
          "name": "userAddress",
          "type": "address"
        },
        {
          "internalType": "string",
          "name": "username",
          "type": "string"
        },
        {
          "internalType": "string",
          "name": "email",
          "type": "string"
        },
        {
          "internalType": "string",
          "name": "county",
          "type": "string"
        },
        {
          "internalType": "string",
          "name": "constituency",
          "type": "string"
        },
        {
          "internalType": "bool",
          "name": "isRegistered",
          "type": "bool"
        },
        {
          "internalType": "bool",
          "name": "hasVotedPresidential",
          "type": "bool"
        },
        {
          "internalType": "bytes32",
          "name": "passwordHash",
          "type": "bytes32"
        },
        {
          "internalType": "bool",
          "name": "isAdmin",
          "type": "bool"
        }
      ],
      "stateMutability": "view",
      "type": "function",
      "constant": true
    },
    {
      "inputs": [
        {
          "internalType": "string",
          "name": "_username",
          "type": "string"
        },
        {
          "internalType": "string",
          "name": "_email",
          "type": "string"
        },
        {
          "internalType": "string",
          "name": "_password",
          "type": "string"
        },
        {
          "internalType": "string",
          "name": "_county",
          "type": "string"
        },
        {
          "internalType": "string",
          "name": "_constituency",
          "type": "string"
        }
      ],
      "name": "createUser",
      "outputs": [],
      "stateMutability": "nonpayable",
      "type": "function"
    },
    {
      "inputs": [],
      "name": "getAllUsers",
      "outputs": [
        {
          "internalType": "uint256[]",
          "name": "userIdsArray",
          "type": "uint256[]"
        },
        {
          "internalType": "address[]",
          "name": "userAddresses",
          "type": "address[]"
        },
        {
          "internalType": "string[]",
          "name": "usernamesArray",
          "type": "string[]"
        },
        {
          "internalType": "string[]",
          "name": "emails",
          "type": "string[]"
        },
        {
          "internalType": "string[]",
          "name": "counties",
          "type": "string[]"
        },
        {
          "internalType": "string[]",
          "name": "constituencies",
          "type": "string[]"
        },
        {
          "internalType": "bool[]",
          "name": "isRegistered",
          "type": "bool[]"
        }
      ],
      "stateMutability": "view",
      "type": "function",
      "constant": true
    },
    {
      "inputs": [
        {
          "internalType": "string",
          "name": "_username",
          "type": "string"
        },
        {
          "internalType": "string",
          "name": "_password",
          "type": "string"
        }
      ],
      "name": "loginUser",
      "outputs": [
        {
          "internalType": "uint256",
          "name": "userId",
          "type": "uint256"
        },
        {
          "internalType": "address",
          "name": "userAddress",
          "type": "address"
        },
        {
          "internalType": "string",
          "name": "username",
          "type": "string"
        },
        {
          "internalType": "string",
          "name": "email",
          "type": "string"
        },
        {
          "internalType": "string",
          "name": "county",
          "type": "string"
        },
        {
          "internalType": "string",
          "name": "constituency",
          "type": "string"
        },
        {
          "internalType": "bool",
          "name": "isRegistered",
          "type": "bool"
        },
        {
          "internalType": "bytes32",
          "name": "token",
          "type": "bytes32"
        }
      ],
      "stateMutability": "nonpayable",
      "type": "function"
    },
    {
      "inputs": [
        {
          "internalType": "uint256",
          "name": "userId",
          "type": "uint256"
        },
        {
          "internalType": "bool",
          "name": "_isAdmin",
          "type": "bool"
        }
      ],
      "name": "setAdmin",
      "outputs": [],
      "stateMutability": "nonpayable",
      "type": "function"
    },
    {
      "inputs": [
        {
          "internalType": "string",
          "name": "name",
          "type": "string"
        },
        {
          "internalType": "string",
          "name": "image",
          "type": "string"
        }
      ],
      "name": "addPresidentialCandidate",
      "outputs": [],
      "stateMutability": "nonpayable",
      "type": "function"
    },
    {
      "inputs": [
        {
          "internalType": "string",
          "name": "county",
          "type": "string"
        },
        {
          "internalType": "string",
          "name": "name",
          "type": "string"
        },
        {
          "internalType": "string",
          "name": "image",
          "type": "string"
        }
      ],
      "name": "addGovernorCandidate",
      "outputs": [],
      "stateMutability": "nonpayable",
      "type": "function"
    },
    {
      "inputs": [
        {
          "internalType": "string",
          "name": "county",
          "type": "string"
        },
        {
          "internalType": "string",
          "name": "constituency",
          "type": "string"
        },
        {
          "internalType": "string",
          "name": "name",
          "type": "string"
        },
        {
          "internalType": "string",
          "name": "image",
          "type": "string"
        }
      ],
      "name": "addParliamentCandidate",
      "outputs": [],
      "stateMutability": "nonpayable",
      "type": "function"
    },
    {
      "inputs": [],
      "name": "getPresidentialCandidates",
      "outputs": [
        {
          "components": [
            {
              "internalType": "string",
              "name": "name",
              "type": "string"
            },
            {
              "internalType": "uint256",
              "name": "votes",
              "type": "uint256"
            },
            {
              "internalType": "string",
              "name": "image",
              "type": "string"
            }
          ],
          "internalType": "struct voting.Candidate[]",
          "name": "",
          "type": "tuple[]"
        }
      ],
      "stateMutability": "view",
      "type": "function",
      "constant": true
    },
    {
      "inputs": [
        {
          "internalType": "uint256",
          "name": "userId",
          "type": "uint256"
        },
        {
          "internalType": "uint256",
          "name": "candidateIndex",
          "type": "uint256"
        }
      ],
      "name": "voteForPresident",
      "outputs": [],
      "stateMutability": "nonpayable",
      "type": "function"
    },
    {
      "inputs": [
        {
          "internalType": "string",
          "name": "county",
          "type": "string"
        }
      ],
      "name": "getGovernorCandidates",
      "outputs": [
        {
          "components": [
            {
              "internalType": "string",
              "name": "name",
              "type": "string"
            },
            {
              "internalType": "uint256",
              "name": "votes",
              "type": "uint256"
            },
            {
              "internalType": "string",
              "name": "image",
              "type": "string"
            }
          ],
          "internalType": "struct voting.Candidate[]",
          "name": "",
          "type": "tuple[]"
        }
      ],
      "stateMutability": "view",
      "type": "function",
      "constant": true
    },
    {
      "inputs": [
        {
          "internalType": "string",
          "name": "county",
          "type": "string"
        },
        {
          "internalType": "string",
          "name": "constituency",
          "type": "string"
        }
      ],
      "name": "getParliamentCandidates",
      "outputs": [
        {
          "components": [
            {
              "internalType": "string",
              "name": "name",
              "type": "string"
            },
            {
              "internalType": "uint256",
              "name": "votes",
              "type": "uint256"
            },
            {
              "internalType": "string",
              "name": "image",
              "type": "string"
            }
          ],
          "internalType": "struct voting.Candidate[]",
          "name": "",
          "type": "tuple[]"
        }
      ],
      "stateMutability": "view",
      "type": "function",
      "constant": true
    },
    {
      "inputs": [
        {
          "internalType": "string",
          "name": "county",
          "type": "string"
        },
        {
          "internalType": "uint256",
          "name": "userId",
          "type": "uint256"
        },
        {
          "internalType": "uint256",
          "name": "candidateIndex",
          "type": "uint256"
        }
      ],
      "name": "voteForGovernor",
      "outputs": [],
      "stateMutability": "nonpayable",
      "type": "function"
    },
    {
      "inputs": [
        {
          "internalType": "string",
          "name": "county",
          "type": "string"
        },
        {
          "internalType": "string",
          "name": "constituency",
          "type": "string"
        },
        {
          "internalType": "uint256",
          "name": "userId",
          "type": "uint256"
        },
        {
          "internalType": "uint256",
          "name": "candidateIndex",
          "type": "uint256"
        }
      ],
      "name": "voteForParliament",
      "outputs": [],
      "stateMutability": "nonpayable",
      "type": "function"
    }
  ],
  "bytecode": "0x6080604052600080556001805534801561001857600080fd5b5061423c806100286000396000f3fe608060405234801561001057600080fd5b506004361061014d5760003560e01c80636a4fa781116100c3578063b5ffbbcc1161007c578063b5ffbbcc14610412578063b92620f714610442578063d5345ff11461045e578063d9635e0c1461047a578063e2842d7914610496578063fbbb3d4e146104ba5761014d565b80636a4fa781146103165780637244a08e146103465780638311ed1a146103765780639a63325c146103a6578063a1e6a255146103d8578063a5e51625146103f65761014d565b8063230e134a11610115578063230e134a146102115780632a29eadb14610243578063365b98b2146102755780633f24ac5a146102ae5780634635fd68146102ca57806365c06f70146102fa5761014d565b806307973ccf1461015257806312c488ee1461017057806313c565ff1461018e57806319b993c7146101be57806322ce12e5146101da575b600080fd5b61015a6104d6565b6040516101679190613bc2565b60405180910390f35b6101786104dc565b60405161018591906138d0565b60405180910390f35b6101a860048036038101906101a39190612bd8565b610669565b6040516101b591906138d0565b60405180910390f35b6101d860048036038101906101d39190612c85565b610814565b005b6101f460048036038101906101ef9190612c19565b6108f7565b604051610208989796959493929190613c95565b60405180910390f35b61022b60048036038101906102269190612fe0565b610e08565b60405161023a93929190613a3d565b60405180910390f35b61025d6004803603810190610258919061309b565b610f75565b60405161026c93929190613a3d565b60405180910390f35b61028f600480360381019061028a919061309b565b6110bf565b6040516102a59a99989796959493929190613bdd565b60405180910390f35b6102c860048036038101906102c391906130c4565b61137a565b005b6102e460048036038101906102df919061309b565b61140f565b6040516102f19190613bc2565b60405180910390f35b610314600480360381019061030f9190612ddf565b611433565b005b610330600480360381019061032b9190612baf565b6116e8565b60405161033d9190613992565b60405180910390f35b610360600480360381019061035b9190612baf565b611708565b60405161036d91906139ad565b60405180910390f35b610390600480360381019061038b9190612c19565b611720565b60405161039d91906138d0565b60405180910390f35b6103c060048036038101906103bb9190612ece565b6118e8565b6040516103cf93929190613a3d565b60405180910390f35b6103e0611a78565b6040516103ed9190613bc2565b60405180910390f35b610410600480360381019061040b9190612f4d565b611a7e565b005b61042c60048036038101906104279190612baf565b611cbe565b6040516104399190613bc2565b60405180910390f35b61045c60048036038101906104579190612c19565b611cd6565b005b61047860048036038101906104739190612d1c565b611d9c565b005b610494600480360381019061048f9190613100565b611e9c565b005b61049e61202e565b6040516104b197969594939291906138f2565b60405180910390f35b6104d460048036038101906104cf9190613034565b61287c565b005b60005481565b60606006805480602002602001604051908101604052809291908181526020016000905b8282101561066057838290600052602060002090600302016040518060600160405290816000820180546105339061406d565b80601f016020809104026020016040519081016040528092919081815260200182805461055f9061406d565b80156105ac5780601f10610581576101008083540402835291602001916105ac565b820191906000526020600020905b81548152906001019060200180831161058f57829003601f168201915b50505050508152602001600182015481526020016002820180546105cf9061406d565b80601f01602080910402602001604051908101604052809291908181526020018280546105fb9061406d565b80156106485780601f1061061d57610100808354040283529160200191610648565b820191906000526020600020905b81548152906001019060200180831161062b57829003601f168201915b50505050508152505081526020019060010190610500565b50505050905090565b606060078260405161067b919061388d565b9081526020016040518091039020805480602002602001604051908101604052809291908181526020016000905b8282101561080957838290600052602060002090600302016040518060600160405290816000820180546106dc9061406d565b80601f01602080910402602001604051908101604052809291908181526020018280546107089061406d565b80156107555780601f1061072a57610100808354040283529160200191610755565b820191906000526020600020905b81548152906001019060200180831161073857829003601f168201915b50505050508152602001600182015481526020016002820180546107789061406d565b80601f01602080910402602001604051908101604052809291908181526020018280546107a49061406d565b80156107f15780601f106107c6576101008083540402835291602001916107f1565b820191906000526020600020905b8154815290600101906020018083116107d457829003601f168201915b505050505081525050815260200190600101906106a9565b505050509050919050565b600783604051610824919061388d565b90815260200160405180910390206040518060600160405280848152602001600081526020018381525090806001815401808255809150506001900390600052602060002090600302016000909190919091506000820151816000019080519060200190610893929190612a65565b506020820151816001015560408201518160020190805190602001906108ba929190612a65565b5050507f7cdb51e9dbbc205231228146c3246e7f914aa6d4a33170e43ecc8e3593481d1a6040516108ea90613ac2565b60405180910390a1505050565b6000806060806060806000806000600460003373ffffffffffffffffffffffffffffffffffffffff1673ffffffffffffffffffffffffffffffffffffffff16815260200190815260200160002054905060006002600083815260200190815260200160002090508060060160009054906101000a900460ff166109af576040517f08c379a00000000000000000000000000000000000000000000000000000000081526004016109a690613ae2565b60405180910390fd5b8a6040516020016109c0919061388d565b60405160208183030381529060405280519060200120816009015414610a1b576040517f08c379a0000000000000000000000000000000000000000000000000000000008152600401610a1290613b62565b60405180910390fd5b6001600960003373ffffffffffffffffffffffffffffffffffffffff1673ffffffffffffffffffffffffffffffffffffffff16815260200190815260200160002060006101000a81548160ff0219169083151502179055504233604051602001610a869291906138a4565b60405160208183030381529060405280519060200120925082600a60003373ffffffffffffffffffffffffffffffffffffffff1673ffffffffffffffffffffffffffffffffffffffff168152602001908152602001600020819055507fc71c38081f986afaaa00545a73c8a74c2fc28b97cd8b2e986186b158ee38750581600001548260010160009054906101000a900473ffffffffffffffffffffffffffffffffffffffff16836002018460030185600401866005018760060160009054906101000a900460ff168a604051610b64989796959493929190613d2f565b60405180910390a180600001548160010160009054906101000a900473ffffffffffffffffffffffffffffffffffffffff16826002018360030184600401856005018660060160009054906101000a900460ff1689858054610bc59061406d565b80601f0160208091040260200160405190810160405280929190818152602001828054610bf19061406d565b8015610c3e5780601f10610c1357610100808354040283529160200191610c3e565b820191906000526020600020905b815481529060010190602001808311610c2157829003601f168201915b50505050509550848054610c519061406d565b80601f0160208091040260200160405190810160405280929190818152602001828054610c7d9061406d565b8015610cca5780601f10610c9f57610100808354040283529160200191610cca565b820191906000526020600020905b815481529060010190602001808311610cad57829003601f168201915b50505050509450838054610cdd9061406d565b80601f0160208091040260200160405190810160405280929190818152602001828054610d099061406d565b8015610d565780601f10610d2b57610100808354040283529160200191610d56565b820191906000526020600020905b815481529060010190602001808311610d3957829003601f168201915b50505050509350828054610d699061406d565b80601f0160208091040260200160405190810160405280929190818152602001828054610d959061406d565b8015610de25780601f10610db757610100808354040283529160200191610de2565b820191906000526020600020905b815481529060010190602001808311610dc557829003601f168201915b505050505092509950995099509950995099509950995050509295985092959890939650565b6007828051602081018201805184825260208301602085012081835280955050505050508181548110610e3a57600080fd5b906000526020600020906003020160009150915050806000018054610e5e9061406d565b80601f0160208091040260200160405190810160405280929190818152602001828054610e8a9061406d565b8015610ed75780601f10610eac57610100808354040283529160200191610ed7565b820191906000526020600020905b815481529060010190602001808311610eba57829003601f168201915b505050505090806001015490806002018054610ef29061406d565b80601f0160208091040260200160405190810160405280929190818152602001828054610f1e9061406d565b8015610f6b5780601f10610f4057610100808354040283529160200191610f6b565b820191906000526020600020905b815481529060010190602001808311610f4e57829003601f168201915b5050505050905083565b60068181548110610f8557600080fd5b9060005260206000209060030201600091509050806000018054610fa89061406d565b80601f0160208091040260200160405190810160405280929190818152602001828054610fd49061406d565b80156110215780601f10610ff657610100808354040283529160200191611021565b820191906000526020600020905b81548152906001019060200180831161100457829003601f168201915b50505050509080600101549080600201805461103c9061406d565b80601f01602080910402602001604051908101604052809291908181526020018280546110689061406d565b80156110b55780601f1061108a576101008083540402835291602001916110b5565b820191906000526020600020905b81548152906001019060200180831161109857829003601f168201915b5050505050905083565b60026020528060005260406000206000915090508060000154908060010160009054906101000a900473ffffffffffffffffffffffffffffffffffffffff169080600201805461110e9061406d565b80601f016020809104026020016040519081016040528092919081815260200182805461113a9061406d565b80156111875780601f1061115c57610100808354040283529160200191611187565b820191906000526020600020905b81548152906001019060200180831161116a57829003601f168201915b50505050509080600301805461119c9061406d565b80601f01602080910402602001604051908101604052809291908181526020018280546111c89061406d565b80156112155780601f106111ea57610100808354040283529160200191611215565b820191906000526020600020905b8154815290600101906020018083116111f857829003601f168201915b50505050509080600401805461122a9061406d565b80601f01602080910402602001604051908101604052809291908181526020018280546112569061406d565b80156112a35780601f10611278576101008083540402835291602001916112a3565b820191906000526020600020905b81548152906001019060200180831161128657829003601f168201915b5050505050908060050180546112b89061406d565b80601f01602080910402602001604051908101604052809291908181526020018280546112e49061406d565b80156113315780601f1061130657610100808354040283529160200191611331565b820191906000526020600020905b81548152906001019060200180831161131457829003601f168201915b5050505050908060060160009054906101000a900460ff16908060060160019054906101000a900460ff169080600901549080600a0160009054906101000a900460ff1690508a565b6002600083815260200190815260200160002060060160009054906101000a900460ff166113dd576040517f08c379a00000000000000000000000000000000000000000000000000000000081526004016113d490613b02565b60405180910390fd5b8060026000848152602001908152602001600020600a0160006101000a81548160ff0219169083151502179055505050565b6005818154811061141f57600080fd5b906000526020600020016000915090505481565b6000600160008154809291906114489061409f565b919050559050806002600083815260200190815260200160002060000181905550336002600083815260200190815260200160002060010160006101000a81548173ffffffffffffffffffffffffffffffffffffffff021916908373ffffffffffffffffffffffffffffffffffffffff160217905550856002600083815260200190815260200160002060020190805190602001906114e8929190612a65565b5084600260008381526020019081526020016000206003019080519060200190611513929190612a65565b508260026000838152602001908152602001600020600401908051906020019061153e929190612a65565b5081600260008381526020019081526020016000206005019080519060200190611569929190612a65565b5060016002600083815260200190815260200160002060060160006101000a81548160ff02191690831515021790555060006002600083815260200190815260200160002060060160016101000a81548160ff021916908315150217905550836040516020016115d9919061388d565b604051602081830303815290604052805190602001206002600083815260200190815260200160002060090181905550600060026000838152602001908152602001600020600a0160006101000a81548160ff021916908315150217905550600581908060018154018082558091505060019003906000526020600020016000909190919091505580600460003373ffffffffffffffffffffffffffffffffffffffff1673ffffffffffffffffffffffffffffffffffffffff168152602001908152602001600020819055507fa1a1af9c5c29e69f23e5ac29120f6a7ea106635803581b461fab3a26faeae6778187876040516116d893929190613dc9565b60405180910390a1505050505050565b60096020528060005260406000206000915054906101000a900460ff1681565b600a6020528060005260406000206000915090505481565b6060600883604051611732919061388d565b90815260200160405180910390208260405161174e919061388d565b9081526020016040518091039020805480602002602001604051908101604052809291908181526020016000905b828210156118dc57838290600052602060002090600302016040518060600160405290816000820180546117af9061406d565b80601f01602080910402602001604051908101604052809291908181526020018280546117db9061406d565b80156118285780601f106117fd57610100808354040283529160200191611828565b820191906000526020600020905b81548152906001019060200180831161180b57829003601f168201915b505050505081526020016001820154815260200160028201805461184b9061406d565b80601f01602080910402602001604051908101604052809291908181526020018280546118779061406d565b80156118c45780601f10611899576101008083540402835291602001916118c4565b820191906000526020600020905b8154815290600101906020018083116118a757829003601f168201915b5050505050815250508152602001906001019061177c565b50505050905092915050565b60088380516020810182018051848252602083016020850120818352809550505050505082805160208101820180518482526020830160208501208183528095505050505050818154811061193c57600080fd5b906000526020600020906003020160009250925050508060000180546119619061406d565b80601f016020809104026020016040519081016040528092919081815260200182805461198d9061406d565b80156119da5780601f106119af576101008083540402835291602001916119da565b820191906000526020600020905b8154815290600101906020018083116119bd57829003601f168201915b5050505050908060010154908060020180546119f59061406d565b80601f0160208091040260200160405190810160405280929190818152602001828054611a219061406d565b8015611a6e5780601f10611a4357610100808354040283529160200191611a6e565b820191906000526020600020905b815481529060010190602001808311611a5157829003601f168201915b5050505050905083565b60015481565b6002600083815260200190815260200160002060060160009054906101000a900460ff16611ae1576040517f08c379a0000000000000000000000000000000000000000000000000000000008152600401611ad890613b82565b60405180910390fd5b6002600083815260200190815260200160002060080184604051611b05919061388d565b908152602001604051809103902083604051611b21919061388d565b908152602001604051809103902060009054906101000a900460ff1615611b7d576040517f08c379a0000000000000000000000000000000000000000000000000000000008152600401611b7490613b42565b60405180910390fd5b600884604051611b8d919061388d565b908152602001604051809103902083604051611ba9919061388d565b90815260200160405180910390208181548110611bef577f4e487b7100000000000000000000000000000000000000000000000000000000600052603260045260246000fd5b90600052602060002090600302016001016000815480929190611c119061409f565b919050555060016002600084815260200190815260200160002060080185604051611c3c919061388d565b908152602001604051809103902084604051611c58919061388d565b908152602001604051809103902060006101000a81548160ff0219169083151502179055507f8b00f84540dbbbed44c962b752df66beb1a1be4e074a685bc73165f4abd96e0d848483604051611cb0939291906139c8565b60405180910390a150505050565b60046020528060005260406000206000915090505481565b60066040518060600160405280848152602001600081526020018381525090806001815401808255809150506001900390600052602060002090600302016000909190919091506000820151816000019080519060200190611d39929190612a65565b50602082015181600101556040820151816002019080519060200190611d60929190612a65565b5050507f7cdb51e9dbbc205231228146c3246e7f914aa6d4a33170e43ecc8e3593481d1a604051611d9090613aa2565b60405180910390a15050565b600884604051611dac919061388d565b908152602001604051809103902083604051611dc8919061388d565b90815260200160405180910390206040518060600160405280848152602001600081526020018381525090806001815401808255809150506001900390600052602060002090600302016000909190919091506000820151816000019080519060200190611e37929190612a65565b50602082015181600101556040820151816002019080519060200190611e5e929190612a65565b5050507f7cdb51e9dbbc205231228146c3246e7f914aa6d4a33170e43ecc8e3593481d1a604051611e8e90613ba2565b60405180910390a150505050565b6002600083815260200190815260200160002060060160009054906101000a900460ff16611eff576040517f08c379a0000000000000000000000000000000000000000000000000000000008152600401611ef690613b82565b60405180910390fd5b6002600083815260200190815260200160002060060160019054906101000a900460ff1615611f63576040517f08c379a0000000000000000000000000000000000000000000000000000000008152600401611f5a90613a82565b60405180910390fd5b60068181548110611f9d577f4e487b7100000000000000000000000000000000000000000000000000000000600052603260045260246000fd5b90600052602060002090600302016001016000815480929190611fbf9061409f565b919050555060016002600084815260200190815260200160002060060160016101000a81548160ff0219169083151502179055507f24e5d24919cad1ac84b6054539853a7dda0bb6d4682870f8572f55c5323721ab816040516120229190613bc2565b60405180910390a15050565b6060806060806060806060600060058054905090508067ffffffffffffffff811115612083577f4e487b7100000000000000000000000000000000000000000000000000000000600052604160045260246000fd5b6040519080825280602002602001820160405280156120b15781602001602082028036833780820191505090505b5097508067ffffffffffffffff8111156120f4577f4e487b7100000000000000000000000000000000000000000000000000000000600052604160045260246000fd5b6040519080825280602002602001820160405280156121225781602001602082028036833780820191505090505b5096508067ffffffffffffffff811115612165577f4e487b7100000000000000000000000000000000000000000000000000000000600052604160045260246000fd5b60405190808252806020026020018201604052801561219857816020015b60608152602001906001900390816121835790505b5095508067ffffffffffffffff8111156121db577f4e487b7100000000000000000000000000000000000000000000000000000000600052604160045260246000fd5b60405190808252806020026020018201604052801561220e57816020015b60608152602001906001900390816121f95790505b5094508067ffffffffffffffff811115612251577f4e487b7100000000000000000000000000000000000000000000000000000000600052604160045260246000fd5b60405190808252806020026020018201604052801561228457816020015b606081526020019060019003908161226f5790505b5093508067ffffffffffffffff8111156122c7577f4e487b7100000000000000000000000000000000000000000000000000000000600052604160045260246000fd5b6040519080825280602002602001820160405280156122fa57816020015b60608152602001906001900390816122e55790505b5092508067ffffffffffffffff81111561233d577f4e487b7100000000000000000000000000000000000000000000000000000000600052604160045260246000fd5b60405190808252806020026020018201604052801561236b5781602001602082028036833780820191505090505b50915060005b81811015612871576000600582815481106123b5577f4e487b7100000000000000000000000000000000000000000000000000000000600052603260045260246000fd5b90600052602060002001549050600060026000838152602001908152602001600020905080600001548b8481518110612417577f4e487b7100000000000000000000000000000000000000000000000000000000600052603260045260246000fd5b6020026020010181815250508060010160009054906101000a900473ffffffffffffffffffffffffffffffffffffffff168a8481518110612481577f4e487b7100000000000000000000000000000000000000000000000000000000600052603260045260246000fd5b602002602001019073ffffffffffffffffffffffffffffffffffffffff16908173ffffffffffffffffffffffffffffffffffffffff16815250508060020180546124ca9061406d565b80601f01602080910402602001604051908101604052809291908181526020018280546124f69061406d565b80156125435780601f1061251857610100808354040283529160200191612543565b820191906000526020600020905b81548152906001019060200180831161252657829003601f168201915b5050505050898481518110612581577f4e487b7100000000000000000000000000000000000000000000000000000000600052603260045260246000fd5b602002602001018190525080600301805461259b9061406d565b80601f01602080910402602001604051908101604052809291908181526020018280546125c79061406d565b80156126145780601f106125e957610100808354040283529160200191612614565b820191906000526020600020905b8154815290600101906020018083116125f757829003601f168201915b5050505050888481518110612652577f4e487b7100000000000000000000000000000000000000000000000000000000600052603260045260246000fd5b602002602001018190525080600401805461266c9061406d565b80601f01602080910402602001604051908101604052809291908181526020018280546126989061406d565b80156126e55780601f106126ba576101008083540402835291602001916126e5565b820191906000526020600020905b8154815290600101906020018083116126c857829003601f168201915b5050505050878481518110612723577f4e487b7100000000000000000000000000000000000000000000000000000000600052603260045260246000fd5b602002602001018190525080600501805461273d9061406d565b80601f01602080910402602001604051908101604052809291908181526020018280546127699061406d565b80156127b65780601f1061278b576101008083540402835291602001916127b6565b820191906000526020600020905b81548152906001019060200180831161279957829003601f168201915b50505050508684815181106127f4577f4e487b7100000000000000000000000000000000000000000000000000000000600052603260045260246000fd5b60200260200101819052508060060160009054906101000a900460ff1685848151811061284a577f4e487b7100000000000000000000000000000000000000000000000000000000600052603260045260246000fd5b602002602001019015159081151581525050505080806128699061409f565b915050612371565b505090919293949596565b6002600083815260200190815260200160002060060160009054906101000a900460ff166128df576040517f08c379a00000000000000000000000000000000000000000000000000000000081526004016128d690613b82565b60405180910390fd5b6002600083815260200190815260200160002060070183604051612903919061388d565b908152602001604051809103902060009054906101000a900460ff161561295f576040517f08c379a000000000000000000000000000000000000000000000000000000000815260040161295690613b22565b60405180910390fd5b60078360405161296f919061388d565b908152602001604051809103902081815481106129b5577f4e487b7100000000000000000000000000000000000000000000000000000000600052603260045260246000fd5b906000526020600020906003020160010160008154809291906129d79061409f565b919050555060016002600084815260200190815260200160002060070184604051612a02919061388d565b908152602001604051809103902060006101000a81548160ff0219169083151502179055507ffb08544030e4038d16b8c77635e4acfe58a02d2fa640f0b12b61f82005fe98b68382604051612a58929190613a0d565b60405180910390a1505050565b828054612a719061406d565b90600052602060002090601f016020900481019282612a935760008555612ada565b82601f10612aac57805160ff1916838001178555612ada565b82800160010185558215612ada579182015b82811115612ad9578251825591602001919060010190612abe565b5b509050612ae79190612aeb565b5090565b5b80821115612b04576000816000905550600101612aec565b5090565b6000612b1b612b1684613e3f565b613e0e565b905082815260208101848484011115612b3357600080fd5b612b3e84828561402b565b509392505050565b600081359050612b55816141c1565b92915050565b600081359050612b6a816141d8565b92915050565b600082601f830112612b8157600080fd5b8135612b91848260208601612b08565b91505092915050565b600081359050612ba9816141ef565b92915050565b600060208284031215612bc157600080fd5b6000612bcf84828501612b46565b91505092915050565b600060208284031215612bea57600080fd5b600082013567ffffffffffffffff811115612c0457600080fd5b612c1084828501612b70565b91505092915050565b60008060408385031215612c2c57600080fd5b600083013567ffffffffffffffff811115612c4657600080fd5b612c5285828601612b70565b925050602083013567ffffffffffffffff811115612c6f57600080fd5b612c7b85828601612b70565b9150509250929050565b600080600060608486031215612c9a57600080fd5b600084013567ffffffffffffffff811115612cb457600080fd5b612cc086828701612b70565b935050602084013567ffffffffffffffff811115612cdd57600080fd5b612ce986828701612b70565b925050604084013567ffffffffffffffff811115612d0657600080fd5b612d1286828701612b70565b9150509250925092565b60008060008060808587031215612d3257600080fd5b600085013567ffffffffffffffff811115612d4c57600080fd5b612d5887828801612b70565b945050602085013567ffffffffffffffff811115612d7557600080fd5b612d8187828801612b70565b935050604085013567ffffffffffffffff811115612d9e57600080fd5b612daa87828801612b70565b925050606085013567ffffffffffffffff811115612dc757600080fd5b612dd387828801612b70565b91505092959194509250565b600080600080600060a08688031215612df757600080fd5b600086013567ffffffffffffffff811115612e1157600080fd5b612e1d88828901612b70565b955050602086013567ffffffffffffffff811115612e3a57600080fd5b612e4688828901612b70565b945050604086013567ffffffffffffffff811115612e6357600080fd5b612e6f88828901612b70565b935050606086013567ffffffffffffffff811115612e8c57600080fd5b612e9888828901612b70565b925050608086013567ffffffffffffffff811115612eb557600080fd5b612ec188828901612b70565b9150509295509295909350565b600080600060608486031215612ee357600080fd5b600084013567ffffffffffffffff811115612efd57600080fd5b612f0986828701612b70565b935050602084013567ffffffffffffffff811115612f2657600080fd5b612f3286828701612b70565b9250506040612f4386828701612b9a565b9150509250925092565b60008060008060808587031215612f6357600080fd5b600085013567ffffffffffffffff811115612f7d57600080fd5b612f8987828801612b70565b945050602085013567ffffffffffffffff811115612fa657600080fd5b612fb287828801612b70565b9350506040612fc387828801612b9a565b9250506060612fd487828801612b9a565b91505092959194509250565b60008060408385031215612ff357600080fd5b600083013567ffffffffffffffff81111561300d57600080fd5b61301985828601612b70565b925050602061302a85828601612b9a565b9150509250929050565b60008060006060848603121561304957600080fd5b600084013567ffffffffffffffff81111561306357600080fd5b61306f86828701612b70565b935050602061308086828701612b9a565b925050604061309186828701612b9a565b9150509250925092565b6000602082840312156130ad57600080fd5b60006130bb84828501612b9a565b91505092915050565b600080604083850312156130d757600080fd5b60006130e585828601612b9a565b92505060206130f685828601612b5b565b9150509250929050565b6000806040838503121561311357600080fd5b600061312185828601612b9a565b925050602061313285828601612b9a565b9150509250929050565b600061314883836131ac565b60208301905092915050565b600061316083836133e5565b60208301905092915050565b60006131788383613412565b905092915050565b600061318c8383613801565b905092915050565b60006131a08383613858565b60208301905092915050565b6131b581613fd9565b82525050565b6131c481613fd9565b82525050565b6131db6131d682613fd9565b6140e8565b82525050565b60006131ec82613ed4565b6131f68185613f57565b935061320183613e6f565b8060005b83811015613232578151613219888261313c565b975061322483613f16565b925050600181019050613205565b5085935050505092915050565b600061324a82613edf565b6132548185613f68565b935061325f83613e7f565b8060005b838110156132905781516132778882613154565b975061328283613f23565b925050600181019050613263565b5085935050505092915050565b60006132a882613eea565b6132b28185613f79565b9350836020820285016132c485613e8f565b8060005b8581101561330057848403895281516132e1858261316c565b94506132ec83613f30565b925060208a019950506001810190506132c8565b50829750879550505050505092915050565b600061331d82613ef5565b6133278185613f8a565b93508360208202850161333985613e9f565b8060005b8581101561337557848403895281516133568582613180565b945061336183613f3d565b925060208a0199505060018101905061333d565b50829750879550505050505092915050565b600061339282613f00565b61339c8185613f9b565b93506133a783613eaf565b8060005b838110156133d85781516133bf8882613194565b97506133ca83613f4a565b9250506001810190506133ab565b5085935050505092915050565b6133ee81613feb565b82525050565b6133fd81613feb565b82525050565b61340c81613ff7565b82525050565b600061341d82613f0b565b6134278185613fac565b935061343781856020860161403a565b613440816141a3565b840191505092915050565b600061345682613f0b565b6134608185613fbd565b935061347081856020860161403a565b613479816141a3565b840191505092915050565b600061348f82613f0b565b6134998185613fce565b93506134a981856020860161403a565b80840191505092915050565b600081546134c28161406d565b6134cc8186613fbd565b945060018216600081146134e757600181146134f95761352c565b60ff198316865260208601935061352c565b61350285613ebf565b60005b8381101561352457815481890152600182019150602081019050613505565b808801955050505b50505092915050565b6000613542601b83613fbd565b91507f416c726561647920766f74656420666f7220707265736964656e7400000000006000830152602082019050919050565b6000613582601c83613fbd565b91507f507265736964656e7469616c2063616e646964617465206164646564000000006000830152602082019050919050565b60006135c2601883613fbd565b91507f476f7665726e6f722063616e64696461746520616464656400000000000000006000830152602082019050919050565b6000613602601683613fbd565b91507f55736572206973206e6f742072656769737465726564000000000000000000006000830152602082019050919050565b6000613642600e83613fbd565b91507f55736572206e6f7420666f756e640000000000000000000000000000000000006000830152602082019050919050565b6000613682602983613fbd565b91507f416c726561647920766f74656420666f7220676f7665726e6f7220696e20746860008301527f697320636f756e747900000000000000000000000000000000000000000000006020830152604082019050919050565b60006136e8603183613fbd565b91507f416c726561647920766f74656420666f72207061726c69616d656e7420696e2060008301527f7468697320636f6e7374697475656e63790000000000000000000000000000006020830152604082019050919050565b600061374e601083613fbd565b91507f496e76616c69642070617373776f7264000000000000000000000000000000006000830152602082019050919050565b600061378e601783613fbd565b91507f566f746572206973206e6f7420726567697374657265640000000000000000006000830152602082019050919050565b60006137ce601a83613fbd565b91507f5061726c69616d656e742063616e6469646174652061646465640000000000006000830152602082019050919050565b6000606083016000830151848203600086015261381e8282613412565b91505060208301516138336020860182613858565b506040830151848203604086015261384b8282613412565b9150508091505092915050565b61386181614021565b82525050565b61387081614021565b82525050565b61388761388282614021565b61410c565b82525050565b60006138998284613484565b915081905092915050565b60006138b08285613876565b6020820191506138c082846131ca565b6014820191508190509392505050565b600060208201905081810360008301526138ea8184613312565b905092915050565b600060e082019050818103600083015261390c818a613387565b9050818103602083015261392081896131e1565b90508181036040830152613934818861329d565b90508181036060830152613948818761329d565b9050818103608083015261395c818661329d565b905081810360a0830152613970818561329d565b905081810360c0830152613984818461323f565b905098975050505050505050565b60006020820190506139a760008301846133f4565b92915050565b60006020820190506139c26000830184613403565b92915050565b600060608201905081810360008301526139e2818661344b565b905081810360208301526139f6818561344b565b9050613a056040830184613867565b949350505050565b60006040820190508181036000830152613a27818561344b565b9050613a366020830184613867565b9392505050565b60006060820190508181036000830152613a57818661344b565b9050613a666020830185613867565b8181036040830152613a78818461344b565b9050949350505050565b60006020820190508181036000830152613a9b81613535565b9050919050565b60006020820190508181036000830152613abb81613575565b9050919050565b60006020820190508181036000830152613adb816135b5565b9050919050565b60006020820190508181036000830152613afb816135f5565b9050919050565b60006020820190508181036000830152613b1b81613635565b9050919050565b60006020820190508181036000830152613b3b81613675565b9050919050565b60006020820190508181036000830152613b5b816136db565b9050919050565b60006020820190508181036000830152613b7b81613741565b9050919050565b60006020820190508181036000830152613b9b81613781565b9050919050565b60006020820190508181036000830152613bbb816137c1565b9050919050565b6000602082019050613bd76000830184613867565b92915050565b600061014082019050613bf3600083018d613867565b613c00602083018c6131bb565b8181036040830152613c12818b61344b565b90508181036060830152613c26818a61344b565b90508181036080830152613c3a818961344b565b905081810360a0830152613c4e818861344b565b9050613c5d60c08301876133f4565b613c6a60e08301866133f4565b613c78610100830185613403565b613c866101208301846133f4565b9b9a5050505050505050505050565b600061010082019050613cab600083018b613867565b613cb8602083018a6131bb565b8181036040830152613cca818961344b565b90508181036060830152613cde818861344b565b90508181036080830152613cf2818761344b565b905081810360a0830152613d06818661344b565b9050613d1560c08301856133f4565b613d2260e0830184613403565b9998505050505050505050565b600061010082019050613d45600083018b613867565b613d52602083018a6131bb565b8181036040830152613d6481896134b5565b90508181036060830152613d7881886134b5565b90508181036080830152613d8c81876134b5565b905081810360a0830152613da081866134b5565b9050613daf60c08301856133f4565b613dbc60e0830184613403565b9998505050505050505050565b6000606082019050613dde6000830186613867565b8181036020830152613df0818561344b565b90508181036040830152613e04818461344b565b9050949350505050565b6000604051905081810181811067ffffffffffffffff82111715613e3557613e34614174565b5b8060405250919050565b600067ffffffffffffffff821115613e5a57613e59614174565b5b601f19601f8301169050602081019050919050565b6000819050602082019050919050565b6000819050602082019050919050565b6000819050602082019050919050565b6000819050602082019050919050565b6000819050602082019050919050565b60008190508160005260206000209050919050565b600081519050919050565b600081519050919050565b600081519050919050565b600081519050919050565b600081519050919050565b600081519050919050565b6000602082019050919050565b6000602082019050919050565b6000602082019050919050565b6000602082019050919050565b6000602082019050919050565b600082825260208201905092915050565b600082825260208201905092915050565b600082825260208201905092915050565b600082825260208201905092915050565b600082825260208201905092915050565b600082825260208201905092915050565b600082825260208201905092915050565b600081905092915050565b6000613fe482614001565b9050919050565b60008115159050919050565b6000819050919050565b600073ffffffffffffffffffffffffffffffffffffffff82169050919050565b6000819050919050565b82818337600083830152505050565b60005b8381101561405857808201518184015260208101905061403d565b83811115614067576000848401525b50505050565b6000600282049050600182168061408557607f821691505b6020821081141561409957614098614145565b5b50919050565b60006140aa82614021565b91507fffffffffffffffffffffffffffffffffffffffffffffffffffffffffffffffff8214156140dd576140dc614116565b5b600182019050919050565b60006140f3826140fa565b9050919050565b6000614105826141b4565b9050919050565b6000819050919050565b7f4e487b7100000000000000000000000000000000000000000000000000000000600052601160045260246000fd5b7f4e487b7100000000000000000000000000000000000000000000000000000000600052602260045260246000fd5b7f4e487b7100000000000000000000000000000000000000000000000000000000600052604160045260246000fd5b6000601f19601f8301169050919050565b60008160601b9050919050565b6141ca81613fd9565b81146141d557600080fd5b50565b6141e181613feb565b81146141ec57600080fd5b50565b6141f881614021565b811461420357600080fd5b5056fea2646970667358221220d31e5a109efb5bbb630e9723b4976df25a088664b5557b2561b7924b8f67b85264736f6c63430008000033",
  "immutableReferences": {},
  "source": "// SPDX-License-Identifier: MIT\r\npragma solidity ^0.8.0;\r\n\r\ncontract voting {\r\n    uint256 public userCount = 0;\r\n    uint256 public nextUserId = 1;\r\n\r\n    struct User {\r\n        uint256 userId;\r\n        address userAddress;\r\n        string username;\r\n        string email;\r\n        string county;\r\n        string constituency;\r\n        bool isRegistered;\r\n        bool hasVotedPresidential;\r\n        mapping(string => bool) hasVotedGovernor;\r\n        mapping(string => mapping(string => bool)) hasVotedParliament;\r\n        bytes32 passwordHash;\r\n        bool isAdmin;\r\n    }\r\n\r\n    struct Candidate {\r\n        string name;\r\n        uint256 votes;\r\n        string image;\r\n    }\r\n\r\n    mapping(uint256 => User) public users; // Mapping to store users by ID\r\n    mapping(string => bool) private usernames; // Mapping to store usernames for uniqueness check\r\n    mapping(address => uint256) public addressToUserId; // Mapping to store user ID by address\r\n    uint256[] public userIds; // Array to store user IDs\r\n    Candidate[] public presidentialCandidates;\r\n    mapping(string => Candidate[]) public governorCandidates;\r\n    mapping(string => mapping(string => Candidate[]))\r\n        public parliamentCandidates;\r\n    mapping(address => bool) public loggedIn; // Mapping to keep track of logged in users\r\n    mapping(address => bytes32) public loginTokens;\r\n\r\n    event UserCreated(uint256 userId, string username, string email);\r\n    event UserLoggedIn(\r\n        uint256 userId,\r\n        address userAddress,\r\n        string username,\r\n        string email,\r\n        string county,\r\n        string constituency,\r\n        bool isRegistered,\r\n        bytes32 token\r\n    );\r\n    event VoteForPresident(uint256 candidateIndex);\r\n    event VoteForGovernor(string county, uint256 candidateIndex);\r\n    event VoteForParliament(\r\n        string county,\r\n        string constituency,\r\n        uint256 candidateIndex\r\n    );\r\n    event Debug(string message);\r\n\r\n    function createUser(\r\n        string memory _username,\r\n        string memory _email,\r\n        string memory _password,\r\n        string memory _county,\r\n        string memory _constituency\r\n    ) public {\r\n        uint256 userId = nextUserId++;\r\n\r\n        users[userId].userId = userId;\r\n        users[userId].userAddress = msg.sender;\r\n        users[userId].username = _username;\r\n        users[userId].email = _email;\r\n        users[userId].county = _county;\r\n        users[userId].constituency = _constituency;\r\n        users[userId].isRegistered = true;\r\n        users[userId].hasVotedPresidential = false;\r\n        users[userId].passwordHash = keccak256(abi.encodePacked(_password));\r\n        users[userId].isAdmin = false;\r\n\r\n        userIds.push(userId); // Store the user ID in the array\r\n        addressToUserId[msg.sender] = userId; // Map the address to the user ID\r\n\r\n        emit UserCreated(userId, _username, _email);\r\n    }\r\n\r\n    function getAllUsers()\r\n        public\r\n        view\r\n        returns (\r\n            uint256[] memory userIdsArray,\r\n            address[] memory userAddresses,\r\n            string[] memory usernamesArray,\r\n            string[] memory emails,\r\n            string[] memory counties,\r\n            string[] memory constituencies,\r\n            bool[] memory isRegistered\r\n        )\r\n    {\r\n        uint256 length = userIds.length;\r\n        userIdsArray = new uint256[](length);\r\n        userAddresses = new address[](length);\r\n        usernamesArray = new string[](length);\r\n        emails = new string[](length);\r\n        counties = new string[](length);\r\n        constituencies = new string[](length);\r\n        isRegistered = new bool[](length);\r\n\r\n        for (uint256 i = 0; i < length; i++) {\r\n            uint256 userId = userIds[i];\r\n            User storage user = users[userId];\r\n            userIdsArray[i] = user.userId;\r\n            userAddresses[i] = user.userAddress;\r\n            usernamesArray[i] = user.username;\r\n            emails[i] = user.email;\r\n            counties[i] = user.county;\r\n            constituencies[i] = user.constituency;\r\n            isRegistered[i] = user.isRegistered;\r\n        }\r\n    }\r\n\r\n    function compareStrings(\r\n        string memory a,\r\n        string memory b\r\n    ) internal pure returns (bool) {\r\n        return (keccak256(abi.encodePacked(a)) ==\r\n            keccak256(abi.encodePacked(b)));\r\n    }\r\n\r\n    function loginUser(\r\n        string memory _username,\r\n        string memory _password\r\n    )\r\n        public\r\n        returns (\r\n            uint256 userId,\r\n            address userAddress,\r\n            string memory username,\r\n            string memory email,\r\n            string memory county,\r\n            string memory constituency,\r\n            bool isRegistered,\r\n            bytes32 token\r\n        )\r\n    {\r\n        uint256 currentUserId = addressToUserId[msg.sender];\r\n        User storage user = users[currentUserId];\r\n\r\n        require(user.isRegistered, \"User is not registered\");\r\n        require(\r\n            user.passwordHash == keccak256(abi.encodePacked(_password)),\r\n            \"Invalid password\"\r\n        );\r\n\r\n        loggedIn[msg.sender] = true;\r\n\r\n        // Generate a login token\r\n        token = keccak256(abi.encodePacked(block.timestamp, msg.sender));\r\n        loginTokens[msg.sender] = token;\r\n\r\n        emit UserLoggedIn(\r\n            user.userId,\r\n            user.userAddress,\r\n            user.username,\r\n            user.email,\r\n            user.county,\r\n            user.constituency,\r\n            user.isRegistered,\r\n            token\r\n        );\r\n\r\n        return (\r\n            user.userId,\r\n            user.userAddress,\r\n            user.username,\r\n            user.email,\r\n            user.county,\r\n            user.constituency,\r\n            user.isRegistered,\r\n            token\r\n        );\r\n    }\r\n\r\n    function setAdmin(uint256 userId, bool _isAdmin) public {\r\n        require(users[userId].isRegistered, \"User not found\");\r\n        users[userId].isAdmin = _isAdmin;\r\n    }\r\n\r\n    function addPresidentialCandidate(\r\n        string memory name,\r\n        string memory image\r\n    ) public {\r\n        presidentialCandidates.push(Candidate(name, 0, image));\r\n        emit Debug(\"Presidential candidate added\");\r\n    }\r\n\r\n    function addGovernorCandidate(\r\n        string memory county,\r\n        string memory name,\r\n        string memory image\r\n    ) public {\r\n        governorCandidates[county].push(Candidate(name, 0, image));\r\n        emit Debug(\"Governor candidate added\");\r\n    }\r\n\r\n    function addParliamentCandidate(\r\n        string memory county,\r\n        string memory constituency,\r\n        string memory name,\r\n        string memory image\r\n    ) public {\r\n        parliamentCandidates[county][constituency].push(\r\n            Candidate(name, 0, image)\r\n        );\r\n        emit Debug(\"Parliament candidate added\");\r\n    }\r\n\r\n    function getPresidentialCandidates()\r\n        public\r\n        view\r\n        returns (Candidate[] memory)\r\n    {\r\n        return presidentialCandidates;\r\n    }\r\n\r\n    function voteForPresident(uint256 userId, uint256 candidateIndex) public {\r\n        require(users[userId].isRegistered, \"Voter is not registered\");\r\n        require(\r\n            !users[userId].hasVotedPresidential,\r\n            \"Already voted for president\"\r\n        );\r\n\r\n        presidentialCandidates[candidateIndex].votes++;\r\n        users[userId].hasVotedPresidential = true;\r\n\r\n        emit VoteForPresident(candidateIndex);\r\n    }\r\n\r\n    function getGovernorCandidates(\r\n        string memory county\r\n    ) public view returns (Candidate[] memory) {\r\n        return governorCandidates[county];\r\n    }\r\n\r\n    function getParliamentCandidates(\r\n        string memory county,\r\n        string memory constituency\r\n    ) public view returns (Candidate[] memory) {\r\n        return parliamentCandidates[county][constituency];\r\n    }\r\n\r\n    function voteForGovernor(\r\n        string memory county,\r\n        uint256 userId,\r\n        uint256 candidateIndex\r\n    ) public {\r\n        require(users[userId].isRegistered, \"Voter is not registered\");\r\n        require(\r\n            !users[userId].hasVotedGovernor[county],\r\n            \"Already voted for governor in this county\"\r\n        );\r\n\r\n        governorCandidates[county][candidateIndex].votes++;\r\n        users[userId].hasVotedGovernor[county] = true;\r\n\r\n        emit VoteForGovernor(county, candidateIndex);\r\n    }\r\n\r\n    function voteForParliament(\r\n        string memory county,\r\n        string memory constituency,\r\n        uint256 userId,\r\n        uint256 candidateIndex\r\n    ) public {\r\n        require(users[userId].isRegistered, \"Voter is not registered\");\r\n        require(\r\n            !users[userId].hasVotedParliament[county][constituency],\r\n            \"Already voted for parliament in this constituency\"\r\n        );\r\n\r\n        parliamentCandidates[county][constituency][candidateIndex].votes++;\r\n        users[userId].hasVotedParliament[county][constituency] = true;\r\n\r\n        emit VoteForParliament(county, constituency, candidateIndex);\r\n    }\r\n}\r\n",
  "sourcePath": "C:\\blockchain-voting-system\\blockchain\\contracts\\voting.sol",
  "compiler": {
    "name": "solc",
    "version": "0.8.0+commit.c7dfd78e.Emscripten.clang"
  },
  "schemaVersion": "3.4.16",
  "updatedAt": "2024-07-20T15:44:48.659Z",
  "networkType": "ethereum",
  "devdoc": {
    "kind": "dev",
    "methods": {},
    "version": 1
  },
  "userdoc": {
    "kind": "user",
    "methods": {},
    "version": 1
  }
}