{
  "contractName": "Voting",
  "abi": [
    {
      "anonymous": false,
      "inputs": [
        {
          "indexed": false,
          "internalType": "string",
          "name": "message",
          "type": "string"
        }
      ],
      "name": "Debug",
      "type": "event"
    },
    {
      "anonymous": false,
      "inputs": [
        {
          "indexed": false,
          "internalType": "string",
          "name": "county",
          "type": "string"
        },
        {
          "indexed": false,
          "internalType": "uint256",
          "name": "candidateIndex",
          "type": "uint256"
        }
      ],
      "name": "VoteForGovernor",
      "type": "event"
    },
    {
      "anonymous": false,
      "inputs": [
        {
          "indexed": false,
          "internalType": "string",
          "name": "county",
          "type": "string"
        },
        {
          "indexed": false,
          "internalType": "string",
          "name": "constituency",
          "type": "string"
        },
        {
          "indexed": false,
          "internalType": "uint256",
          "name": "candidateIndex",
          "type": "uint256"
        }
      ],
      "name": "VoteForParliament",
      "type": "event"
    },
    {
      "anonymous": false,
      "inputs": [
        {
          "indexed": false,
          "internalType": "uint256",
          "name": "candidateIndex",
          "type": "uint256"
        }
      ],
      "name": "VoteForPresident",
      "type": "event"
    },
    {
      "inputs": [
        {
          "internalType": "string",
          "name": "",
          "type": "string"
        },
        {
          "internalType": "uint256",
          "name": "",
          "type": "uint256"
        }
      ],
      "name": "governorCandidates",
      "outputs": [
        {
          "internalType": "string",
          "name": "name",
          "type": "string"
        },
        {
          "internalType": "uint256",
          "name": "votes",
          "type": "uint256"
        }
      ],
      "stateMutability": "view",
      "type": "function",
      "constant": true
    },
    {
      "inputs": [
        {
          "internalType": "string",
          "name": "",
          "type": "string"
        },
        {
          "internalType": "string",
          "name": "",
          "type": "string"
        },
        {
          "internalType": "uint256",
          "name": "",
          "type": "uint256"
        }
      ],
      "name": "parliamentCandidates",
      "outputs": [
        {
          "internalType": "string",
          "name": "name",
          "type": "string"
        },
        {
          "internalType": "uint256",
          "name": "votes",
          "type": "uint256"
        }
      ],
      "stateMutability": "view",
      "type": "function",
      "constant": true
    },
    {
      "inputs": [
        {
          "internalType": "uint256",
          "name": "",
          "type": "uint256"
        }
      ],
      "name": "presidentialCandidates",
      "outputs": [
        {
          "internalType": "string",
          "name": "name",
          "type": "string"
        },
        {
          "internalType": "uint256",
          "name": "votes",
          "type": "uint256"
        }
      ],
      "stateMutability": "view",
      "type": "function",
      "constant": true
    },
    {
      "inputs": [
        {
          "internalType": "address",
          "name": "",
          "type": "address"
        }
      ],
      "name": "voters",
      "outputs": [
        {
          "internalType": "bool",
          "name": "hasVotedPresidential",
          "type": "bool"
        }
      ],
      "stateMutability": "view",
      "type": "function",
      "constant": true
    },
    {
      "inputs": [
        {
          "internalType": "string",
          "name": "name",
          "type": "string"
        }
      ],
      "name": "addPresidentialCandidate",
      "outputs": [],
      "stateMutability": "nonpayable",
      "type": "function"
    },
    {
      "inputs": [
        {
          "internalType": "string",
          "name": "county",
          "type": "string"
        },
        {
          "internalType": "string",
          "name": "name",
          "type": "string"
        }
      ],
      "name": "addGovernorCandidate",
      "outputs": [],
      "stateMutability": "nonpayable",
      "type": "function"
    },
    {
      "inputs": [
        {
          "internalType": "string",
          "name": "county",
          "type": "string"
        },
        {
          "internalType": "string",
          "name": "constituency",
          "type": "string"
        },
        {
          "internalType": "string",
          "name": "name",
          "type": "string"
        }
      ],
      "name": "addParliamentCandidate",
      "outputs": [],
      "stateMutability": "nonpayable",
      "type": "function"
    },
    {
      "inputs": [
        {
          "internalType": "uint256",
          "name": "candidateIndex",
          "type": "uint256"
        }
      ],
      "name": "voteForPresident",
      "outputs": [],
      "stateMutability": "nonpayable",
      "type": "function"
    },
    {
      "inputs": [
        {
          "internalType": "string",
          "name": "county",
          "type": "string"
        },
        {
          "internalType": "uint256",
          "name": "candidateIndex",
          "type": "uint256"
        }
      ],
      "name": "voteForGovernor",
      "outputs": [],
      "stateMutability": "nonpayable",
      "type": "function"
    },
    {
      "inputs": [
        {
          "internalType": "string",
          "name": "county",
          "type": "string"
        },
        {
          "internalType": "string",
          "name": "constituency",
          "type": "string"
        },
        {
          "internalType": "uint256",
          "name": "candidateIndex",
          "type": "uint256"
        }
      ],
      "name": "voteForParliament",
      "outputs": [],
      "stateMutability": "nonpayable",
      "type": "function"
    },
    {
      "inputs": [],
      "name": "getPresidentialCandidates",
      "outputs": [
        {
          "components": [
            {
              "internalType": "string",
              "name": "name",
              "type": "string"
            },
            {
              "internalType": "uint256",
              "name": "votes",
              "type": "uint256"
            }
          ],
          "internalType": "struct Voting.Candidate[]",
          "name": "",
          "type": "tuple[]"
        }
      ],
      "stateMutability": "view",
      "type": "function",
      "constant": true
    },
    {
      "inputs": [
        {
          "internalType": "string",
          "name": "county",
          "type": "string"
        }
      ],
      "name": "getGovernorCandidates",
      "outputs": [
        {
          "components": [
            {
              "internalType": "string",
              "name": "name",
              "type": "string"
            },
            {
              "internalType": "uint256",
              "name": "votes",
              "type": "uint256"
            }
          ],
          "internalType": "struct Voting.Candidate[]",
          "name": "",
          "type": "tuple[]"
        }
      ],
      "stateMutability": "view",
      "type": "function",
      "constant": true
    },
    {
      "inputs": [
        {
          "internalType": "string",
          "name": "county",
          "type": "string"
        },
        {
          "internalType": "string",
          "name": "constituency",
          "type": "string"
        }
      ],
      "name": "getParliamentCandidates",
      "outputs": [
        {
          "components": [
            {
              "internalType": "string",
              "name": "name",
              "type": "string"
            },
            {
              "internalType": "uint256",
              "name": "votes",
              "type": "uint256"
            }
          ],
          "internalType": "struct Voting.Candidate[]",
          "name": "",
          "type": "tuple[]"
        }
      ],
      "stateMutability": "view",
      "type": "function",
      "constant": true
    }
  ],
  "bytecode": "0x608060405234801561001057600080fd5b50611c20806100206000396000f3fe608060405234801561001057600080fd5b50600436106100cf5760003560e01c80638311ed1a1161008c578063a3ec138d11610066578063a3ec138d14610239578063ab1e56f614610269578063c8046a7514610285578063d8336461146102a1576100cf565b80638311ed1a146101bc5780638aa32c32146101ec5780639a63325c14610208576100cf565b806312c488ee146100d457806313c565ff146100f25780631bed47df14610122578063230e134a1461013e5780632a29eadb1461016f5780632e21e1e9146101a0575b600080fd5b6100dc6102bd565b6040516100e991906117ba565b60405180910390f35b61010c60048036038101906101079190611201565b6103b8565b60405161011991906117ba565b60405180910390f35b61013c600480360381019061013791906113c4565b6104d1565b005b610158600480360381019061015391906113c4565b6106ae565b60405161016692919061183c565b60405180910390f35b61018960048036038101906101849190611418565b61078d565b60405161019792919061183c565b60405180910390f35b6101ba60048036038101906101b59190611242565b610849565b005b6101d660048036038101906101d19190611242565b610908565b6040516101e391906117ba565b60405180910390f35b610206600480360381019061020191906112ae565b610a3e565b005b610222600480360381019061021d9190611345565b610b1a565b60405161023092919061183c565b60405180910390f35b610253600480360381019061024e91906111d8565b610c1c565b60405161026091906117dc565b60405180910390f35b610283600480360381019061027e9190611418565b610c47565b005b61029f600480360381019061029a9190611201565b610dcd565b005b6102bb60048036038101906102b69190611345565b610e6f565b005b60606000805480602002602001604051908101604052809291908181526020016000905b828210156103af578382906000526020600020906002020160405180604001604052908160008201805461031490611aa3565b80601f016020809104026020016040519081016040528092919081815260200182805461034090611aa3565b801561038d5780601f106103625761010080835404028352916020019161038d565b820191906000526020600020905b81548152906001019060200180831161037057829003601f168201915b50505050508152602001600182015481525050815260200190600101906102e1565b50505050905090565b60606001826040516103ca91906117a3565b9081526020016040518091039020805480602002602001604051908101604052809291908181526020016000905b828210156104c6578382906000526020600020906002020160405180604001604052908160008201805461042b90611aa3565b80601f016020809104026020016040519081016040528092919081815260200182805461045790611aa3565b80156104a45780601f10610479576101008083540402835291602001916104a4565b820191906000526020600020905b81548152906001019060200180831161048757829003601f168201915b50505050508152602001600182015481525050815260200190600101906103f8565b505050509050919050565b600360003373ffffffffffffffffffffffffffffffffffffffff1673ffffffffffffffffffffffffffffffffffffffff1681526020019081526020016000206001018260405161052191906117a3565b908152602001604051809103902060009054906101000a900460ff161561057d576040517f08c379a0000000000000000000000000000000000000000000000000000000008152600401610574906118cc565b60405180910390fd5b60018260405161058d91906117a3565b908152602001604051809103902081815481106105d3577f4e487b7100000000000000000000000000000000000000000000000000000000600052603260045260246000fd5b906000526020600020906002020160010160008154809291906105f590611ad5565b91905055506001600360003373ffffffffffffffffffffffffffffffffffffffff1673ffffffffffffffffffffffffffffffffffffffff1681526020019081526020016000206001018360405161064c91906117a3565b908152602001604051809103902060006101000a81548160ff0219169083151502179055507ffb08544030e4038d16b8c77635e4acfe58a02d2fa640f0b12b61f82005fe98b682826040516106a292919061183c565b60405180910390a15050565b60018280516020810182018051848252602083016020850120818352809550505050505081815481106106e057600080fd5b90600052602060002090600202016000915091505080600001805461070490611aa3565b80601f016020809104026020016040519081016040528092919081815260200182805461073090611aa3565b801561077d5780601f106107525761010080835404028352916020019161077d565b820191906000526020600020905b81548152906001019060200180831161076057829003601f168201915b5050505050908060010154905082565b6000818154811061079d57600080fd5b90600052602060002090600202016000915090508060000180546107c090611aa3565b80601f01602080910402602001604051908101604052809291908181526020018280546107ec90611aa3565b80156108395780601f1061080e57610100808354040283529160200191610839565b820191906000526020600020905b81548152906001019060200180831161081c57829003601f168201915b5050505050908060010154905082565b60018260405161085991906117a3565b908152602001604051809103902060405180604001604052808381526020016000815250908060018154018082558091505060019003906000526020600020906002020160009091909190915060008201518160000190805190602001906108c29291906110a3565b506020820151816001015550507f7cdb51e9dbbc205231228146c3246e7f914aa6d4a33170e43ecc8e3593481d1a6040516108fc906118ac565b60405180910390a15050565b606060028360405161091a91906117a3565b90815260200160405180910390208260405161093691906117a3565b9081526020016040518091039020805480602002602001604051908101604052809291908181526020016000905b82821015610a32578382906000526020600020906002020160405180604001604052908160008201805461099790611aa3565b80601f01602080910402602001604051908101604052809291908181526020018280546109c390611aa3565b8015610a105780601f106109e557610100808354040283529160200191610a10565b820191906000526020600020905b8154815290600101906020018083116109f357829003601f168201915b5050505050815260200160018201548152505081526020019060010190610964565b50505050905092915050565b600283604051610a4e91906117a3565b908152602001604051809103902082604051610a6a91906117a3565b90815260200160405180910390206040518060400160405280838152602001600081525090806001815401808255809150506001900390600052602060002090600202016000909190919091506000820151816000019080519060200190610ad39291906110a3565b506020820151816001015550507f7cdb51e9dbbc205231228146c3246e7f914aa6d4a33170e43ecc8e3593481d1a604051610b0d9061190c565b60405180910390a1505050565b600283805160208101820180518482526020830160208501208183528095505050505050828051602081018201805184825260208301602085012081835280955050505050508181548110610b6e57600080fd5b90600052602060002090600202016000925092505050806000018054610b9390611aa3565b80601f0160208091040260200160405190810160405280929190818152602001828054610bbf90611aa3565b8015610c0c5780601f10610be157610100808354040283529160200191610c0c565b820191906000526020600020905b815481529060010190602001808311610bef57829003601f168201915b5050505050908060010154905082565b60036020528060005260406000206000915090508060000160009054906101000a900460ff16905081565b600360003373ffffffffffffffffffffffffffffffffffffffff1673ffffffffffffffffffffffffffffffffffffffff16815260200190815260200160002060000160009054906101000a900460ff1615610cd7576040517f08c379a0000000000000000000000000000000000000000000000000000000008152600401610cce9061186c565b60405180910390fd5b60008181548110610d11577f4e487b7100000000000000000000000000000000000000000000000000000000600052603260045260246000fd5b90600052602060002090600202016001016000815480929190610d3390611ad5565b91905055506001600360003373ffffffffffffffffffffffffffffffffffffffff1673ffffffffffffffffffffffffffffffffffffffff16815260200190815260200160002060000160006101000a81548160ff0219169083151502179055507f24e5d24919cad1ac84b6054539853a7dda0bb6d4682870f8572f55c5323721ab81604051610dc2919061192c565b60405180910390a150565b60006040518060400160405280838152602001600081525090806001815401808255809150506001900390600052602060002090600202016000909190919091506000820151816000019080519060200190610e2a9291906110a3565b506020820151816001015550507f7cdb51e9dbbc205231228146c3246e7f914aa6d4a33170e43ecc8e3593481d1a604051610e649061188c565b60405180910390a150565b600360003373ffffffffffffffffffffffffffffffffffffffff1673ffffffffffffffffffffffffffffffffffffffff16815260200190815260200160002060020183604051610ebf91906117a3565b908152602001604051809103902082604051610edb91906117a3565b908152602001604051809103902060009054906101000a900460ff1615610f37576040517f08c379a0000000000000000000000000000000000000000000000000000000008152600401610f2e906118ec565b60405180910390fd5b600283604051610f4791906117a3565b908152602001604051809103902082604051610f6391906117a3565b90815260200160405180910390208181548110610fa9577f4e487b7100000000000000000000000000000000000000000000000000000000600052603260045260246000fd5b90600052602060002090600202016001016000815480929190610fcb90611ad5565b91905055506001600360003373ffffffffffffffffffffffffffffffffffffffff1673ffffffffffffffffffffffffffffffffffffffff1681526020019081526020016000206002018460405161102291906117a3565b90815260200160405180910390208360405161103e91906117a3565b908152602001604051809103902060006101000a81548160ff0219169083151502179055507f8b00f84540dbbbed44c962b752df66beb1a1be4e074a685bc73165f4abd96e0d838383604051611096939291906117f7565b60405180910390a1505050565b8280546110af90611aa3565b90600052602060002090601f0160209004810192826110d15760008555611118565b82601f106110ea57805160ff1916838001178555611118565b82800160010185558215611118579182015b828111156111175782518255916020019190600101906110fc565b5b5090506111259190611129565b5090565b5b8082111561114257600081600090555060010161112a565b5090565b600061115961115484611978565b611947565b90508281526020810184848401111561117157600080fd5b61117c848285611a61565b509392505050565b60008135905061119381611bbc565b92915050565b600082601f8301126111aa57600080fd5b81356111ba848260208601611146565b91505092915050565b6000813590506111d281611bd3565b92915050565b6000602082840312156111ea57600080fd5b60006111f884828501611184565b91505092915050565b60006020828403121561121357600080fd5b600082013567ffffffffffffffff81111561122d57600080fd5b61123984828501611199565b91505092915050565b6000806040838503121561125557600080fd5b600083013567ffffffffffffffff81111561126f57600080fd5b61127b85828601611199565b925050602083013567ffffffffffffffff81111561129857600080fd5b6112a485828601611199565b9150509250929050565b6000806000606084860312156112c357600080fd5b600084013567ffffffffffffffff8111156112dd57600080fd5b6112e986828701611199565b935050602084013567ffffffffffffffff81111561130657600080fd5b61131286828701611199565b925050604084013567ffffffffffffffff81111561132f57600080fd5b61133b86828701611199565b9150509250925092565b60008060006060848603121561135a57600080fd5b600084013567ffffffffffffffff81111561137457600080fd5b61138086828701611199565b935050602084013567ffffffffffffffff81111561139d57600080fd5b6113a986828701611199565b92505060406113ba868287016111c3565b9150509250925092565b600080604083850312156113d757600080fd5b600083013567ffffffffffffffff8111156113f157600080fd5b6113fd85828601611199565b925050602061140e858286016111c3565b9150509250929050565b60006020828403121561142a57600080fd5b6000611438848285016111c3565b91505092915050565b600061144d8383611748565b905092915050565b6000611460826119b8565b61146a81856119db565b93508360208202850161147c856119a8565b8060005b858110156114b857848403895281516114998582611441565b94506114a4836119ce565b925060208a01995050600181019050611480565b50829750879550505050505092915050565b6114d381611a2b565b82525050565b60006114e4826119c3565b6114ee81856119ec565b93506114fe818560208601611a70565b61150781611bab565b840191505092915050565b600061151d826119c3565b61152781856119fd565b9350611537818560208601611a70565b61154081611bab565b840191505092915050565b6000611556826119c3565b6115608185611a0e565b9350611570818560208601611a70565b80840191505092915050565b6000611589601b836119fd565b91507f416c726561647920766f74656420666f7220707265736964656e7400000000006000830152602082019050919050565b60006115c9601c836119fd565b91507f507265736964656e7469616c2063616e646964617465206164646564000000006000830152602082019050919050565b60006116096018836119fd565b91507f476f7665726e6f722063616e64696461746520616464656400000000000000006000830152602082019050919050565b60006116496029836119fd565b91507f416c726561647920766f74656420666f7220676f7665726e6f7220696e20746860008301527f697320636f756e747900000000000000000000000000000000000000000000006020830152604082019050919050565b60006116af6031836119fd565b91507f416c726561647920766f74656420666f72207061726c69616d656e7420696e2060008301527f7468697320636f6e7374697475656e63790000000000000000000000000000006020830152604082019050919050565b6000611715601a836119fd565b91507f5061726c69616d656e742063616e6469646174652061646465640000000000006000830152602082019050919050565b6000604083016000830151848203600086015261176582826114d9565b915050602083015161177a6020860182611785565b508091505092915050565b61178e81611a57565b82525050565b61179d81611a57565b82525050565b60006117af828461154b565b915081905092915050565b600060208201905081810360008301526117d48184611455565b905092915050565b60006020820190506117f160008301846114ca565b92915050565b600060608201905081810360008301526118118186611512565b905081810360208301526118258185611512565b90506118346040830184611794565b949350505050565b600060408201905081810360008301526118568185611512565b90506118656020830184611794565b9392505050565b600060208201905081810360008301526118858161157c565b9050919050565b600060208201905081810360008301526118a5816115bc565b9050919050565b600060208201905081810360008301526118c5816115fc565b9050919050565b600060208201905081810360008301526118e58161163c565b9050919050565b60006020820190508181036000830152611905816116a2565b9050919050565b6000602082019050818103600083015261192581611708565b9050919050565b60006020820190506119416000830184611794565b92915050565b6000604051905081810181811067ffffffffffffffff8211171561196e5761196d611b7c565b5b8060405250919050565b600067ffffffffffffffff82111561199357611992611b7c565b5b601f19601f8301169050602081019050919050565b6000819050602082019050919050565b600081519050919050565b600081519050919050565b6000602082019050919050565b600082825260208201905092915050565b600082825260208201905092915050565b600082825260208201905092915050565b600081905092915050565b6000611a2482611a37565b9050919050565b60008115159050919050565b600073ffffffffffffffffffffffffffffffffffffffff82169050919050565b6000819050919050565b82818337600083830152505050565b60005b83811015611a8e578082015181840152602081019050611a73565b83811115611a9d576000848401525b50505050565b60006002820490506001821680611abb57607f821691505b60208210811415611acf57611ace611b4d565b5b50919050565b6000611ae082611a57565b91507fffffffffffffffffffffffffffffffffffffffffffffffffffffffffffffffff821415611b1357611b12611b1e565b5b600182019050919050565b7f4e487b7100000000000000000000000000000000000000000000000000000000600052601160045260246000fd5b7f4e487b7100000000000000000000000000000000000000000000000000000000600052602260045260246000fd5b7f4e487b7100000000000000000000000000000000000000000000000000000000600052604160045260246000fd5b6000601f19601f8301169050919050565b611bc581611a19565b8114611bd057600080fd5b50565b611bdc81611a57565b8114611be757600080fd5b5056fea264697066735822122024faacc69e3f657706e9c92735414dc61796394c3278face9e65edee4d1b262164736f6c63430008000033",
  "immutableReferences": {},
  "source": "// SPDX-License-Identifier: MIT\r\n// License identifier to indicate that this code is licensed under the MIT License.\r\n\r\npragma solidity ^0.8.0;\r\n// Specifies the Solidity version to be used for this contract.\r\n\r\ncontract Voting {\r\n    // Defines a new contract named \"Voting\".\r\n\r\n    struct Candidate {\r\n        // Defines a struct (similar to a class) to represent a candidate.\r\n        string name; // The candidate's name.\r\n        uint256 votes; // The number of votes the candidate has received.\r\n    }\r\n\r\n    Candidate[] public presidentialCandidates;\r\n    // An array to store all presidential candidates.\r\n\r\n    mapping(string => Candidate[]) public governorCandidates;\r\n    // A mapping to store governor candidates by county. The key is a county name, and the value is an array of candidates.\r\n\r\n    mapping(string => mapping(string => Candidate[]))\r\n        public parliamentCandidates;\r\n    // A mapping to store parliament candidates by county and constituency.\r\n    // The outer key is the county name, the inner key is the constituency name, and the value is an array of candidates.\r\n\r\n    struct Voter {\r\n        // Defines a struct to represent a voter.\r\n        bool hasVotedPresidential; // Tracks whether the voter has voted for a presidential candidate.\r\n        mapping(string => bool) hasVotedGovernor; // Tracks whether the voter has voted for a governor in each county.\r\n        mapping(string => mapping(string => bool)) hasVotedParliament; // Tracks whether the voter has voted for a parliament member in each constituency within each county.\r\n    }\r\n\r\n    mapping(address => Voter) public voters;\r\n    // A mapping to store voter information by their address. Each address maps to a Voter struct.\r\n\r\n    // Events to emit when a vote is cast.\r\n    event VoteForPresident(uint256 candidateIndex);\r\n    event VoteForGovernor(string county, uint256 candidateIndex);\r\n    event VoteForParliament(\r\n        string county,\r\n        string constituency,\r\n        uint256 candidateIndex\r\n    );\r\n    event Debug(string message); // A debug event for logging messages.\r\n\r\n    // Function to add a presidential candidate.\r\n    function addPresidentialCandidate(string memory name) public {\r\n        presidentialCandidates.push(Candidate(name, 0));\r\n        // Adds a new candidate with the given name and 0 votes to the presidentialCandidates array.\r\n        emit Debug(\"Presidential candidate added\");\r\n        // Emits a debug event indicating that a presidential candidate was added.\r\n    }\r\n\r\n    // Function to add a governor candidate.\r\n    function addGovernorCandidate(\r\n        string memory county,\r\n        string memory name\r\n    ) public {\r\n        governorCandidates[county].push(Candidate(name, 0));\r\n        // Adds a new candidate with the given name and 0 votes to the governorCandidates array for the specified county.\r\n        emit Debug(\"Governor candidate added\");\r\n        // Emits a debug event indicating that a governor candidate was added.\r\n    }\r\n\r\n    // Function to add a parliament candidate.\r\n    function addParliamentCandidate(\r\n        string memory county,\r\n        string memory constituency,\r\n        string memory name\r\n    ) public {\r\n        parliamentCandidates[county][constituency].push(Candidate(name, 0));\r\n        // Adds a new candidate with the given name and 0 votes to the parliamentCandidates array for the specified county and constituency.\r\n        emit Debug(\"Parliament candidate added\");\r\n        // Emits a debug event indicating that a parliament candidate was added.\r\n    }\r\n\r\n    // Function to vote for a presidential candidate.\r\n    function voteForPresident(uint256 candidateIndex) public {\r\n        require(\r\n            !voters[msg.sender].hasVotedPresidential,\r\n            \"Already voted for president\"\r\n        );\r\n        // Ensures that the voter has not already voted for a presidential candidate.\r\n        presidentialCandidates[candidateIndex].votes++;\r\n        // Increments the vote count for the specified presidential candidate.\r\n        voters[msg.sender].hasVotedPresidential = true;\r\n        // Marks the voter as having voted for a presidential candidate.\r\n        emit VoteForPresident(candidateIndex);\r\n        // Emits an event indicating that a vote was cast for a presidential candidate.\r\n    }\r\n\r\n    // Function to vote for a governor candidate.\r\n    function voteForGovernor(\r\n        string memory county,\r\n        uint256 candidateIndex\r\n    ) public {\r\n        require(\r\n            !voters[msg.sender].hasVotedGovernor[county],\r\n            \"Already voted for governor in this county\"\r\n        );\r\n        // Ensures that the voter has not already voted for a governor in the specified county.\r\n        governorCandidates[county][candidateIndex].votes++;\r\n        // Increments the vote count for the specified governor candidate in the specified county.\r\n        voters[msg.sender].hasVotedGovernor[county] = true;\r\n        // Marks the voter as having voted for a governor in the specified county.\r\n        emit VoteForGovernor(county, candidateIndex);\r\n        // Emits an event indicating that a vote was cast for a governor candidate.\r\n    }\r\n\r\n    // Function to vote for a parliament candidate.\r\n    function voteForParliament(\r\n        string memory county,\r\n        string memory constituency,\r\n        uint256 candidateIndex\r\n    ) public {\r\n        require(\r\n            !voters[msg.sender].hasVotedParliament[county][constituency],\r\n            \"Already voted for parliament in this constituency\"\r\n        );\r\n        // Ensures that the voter has not already voted for a parliament member in the specified constituency within the specified county.\r\n        parliamentCandidates[county][constituency][candidateIndex].votes++;\r\n        // Increments the vote count for the specified parliament candidate in the specified county and constituency.\r\n        voters[msg.sender].hasVotedParliament[county][constituency] = true;\r\n        // Marks the voter as having voted for a parliament member in the specified constituency within the specified county.\r\n        emit VoteForParliament(county, constituency, candidateIndex);\r\n        // Emits an event indicating that a vote was cast for a parliament candidate.\r\n    }\r\n\r\n    // Function to get the list of presidential candidates.\r\n    function getPresidentialCandidates()\r\n        public\r\n        view\r\n        returns (Candidate[] memory)\r\n    {\r\n        return presidentialCandidates;\r\n        // Returns the array of presidential candidates.\r\n    }\r\n\r\n    // Function to get the list of governor candidates for a specified county.\r\n    function getGovernorCandidates(\r\n        string memory county\r\n    ) public view returns (Candidate[] memory) {\r\n        return governorCandidates[county];\r\n        // Returns the array of governor candidates for the specified county.\r\n    }\r\n\r\n    // Function to get the list of parliament candidates for a specified county and constituency.\r\n    function getParliamentCandidates(\r\n        string memory county,\r\n        string memory constituency\r\n    ) public view returns (Candidate[] memory) {\r\n        return parliamentCandidates[county][constituency];\r\n        // Returns the array of parliament candidates for the specified county and constituency.\r\n    }\r\n}\r\n",
  "sourcePath": "C:\\BLOCKCHAIN-VOTING-SYSTEM\\contracts\\Voting.sol",
  "compiler": {
    "name": "solc",
    "version": "0.8.0+commit.c7dfd78e.Emscripten.clang"
  },
  "schemaVersion": "3.4.16",
  "updatedAt": "2024-07-02T21:14:04.168Z",
  "networkType": "ethereum",
  "devdoc": {
    "kind": "dev",
    "methods": {},
    "version": 1
  },
  "userdoc": {
    "kind": "user",
    "methods": {},
    "version": 1
  }
}